{
  "_format": "hh-sol-artifact-1",
  "contractName": "EscrowManager",
  "sourceName": "contracts/EscrowManager.sol",
  "abi": [
    {
      "inputs": [
        {
          "internalType": "uint256",
          "name": "_platformFeePercentage",
          "type": "uint256"
        },
        {
          "internalType": "address[]",
          "name": "_initialApprovers",
          "type": "address[]"
        },
        {
          "internalType": "uint256",
          "name": "_requiredApprovals",
          "type": "uint256"
        }
      ],
      "stateMutability": "nonpayable",
      "type": "constructor"
    },
    {
      "inputs": [],
      "name": "ReentrancyGuardReentrantCall",
      "type": "error"
    },
    {
      "anonymous": false,
      "inputs": [
        {
          "indexed": true,
          "internalType": "address",
          "name": "token",
          "type": "address"
        },
        {
          "indexed": true,
          "internalType": "address",
          "name": "campaign",
          "type": "address"
        },
        {
          "indexed": true,
          "internalType": "address",
          "name": "depositor",
          "type": "address"
        },
        {
          "indexed": false,
          "internalType": "uint256",
          "name": "amount",
          "type": "uint256"
        }
      ],
      "name": "ERC20Deposited",
      "type": "event"
    },
    {
      "anonymous": false,
      "inputs": [
        {
          "indexed": true,
          "internalType": "address",
          "name": "token",
          "type": "address"
        },
        {
          "indexed": true,
          "internalType": "address",
          "name": "campaign",
          "type": "address"
        },
        {
          "indexed": true,
          "internalType": "address",
          "name": "recipient",
          "type": "address"
        },
        {
          "indexed": false,
          "internalType": "uint256",
          "name": "amount",
          "type": "uint256"
        }
      ],
      "name": "ERC20Refunded",
      "type": "event"
    },
    {
      "anonymous": false,
      "inputs": [
        {
          "indexed": true,
          "internalType": "address",
          "name": "campaign",
          "type": "address"
        },
        {
          "indexed": true,
          "internalType": "address",
          "name": "depositor",
          "type": "address"
        },
        {
          "indexed": false,
          "internalType": "uint256",
          "name": "amount",
          "type": "uint256"
        }
      ],
      "name": "FundsDeposited",
      "type": "event"
    },
    {
      "anonymous": false,
      "inputs": [
        {
          "indexed": true,
          "internalType": "address",
          "name": "campaign",
          "type": "address"
        },
        {
          "indexed": true,
          "internalType": "address",
          "name": "recipient",
          "type": "address"
        },
        {
          "indexed": false,
          "internalType": "uint256",
          "name": "amount",
          "type": "uint256"
        }
      ],
      "name": "FundsRefunded",
      "type": "event"
    },
    {
      "anonymous": false,
      "inputs": [
        {
          "indexed": true,
          "internalType": "address",
          "name": "campaign",
          "type": "address"
        },
        {
          "indexed": true,
          "internalType": "address",
          "name": "approver",
          "type": "address"
        }
      ],
      "name": "FundsReleaseApproved",
      "type": "event"
    },
    {
      "anonymous": false,
      "inputs": [
        {
          "indexed": true,
          "internalType": "address",
          "name": "campaign",
          "type": "address"
        }
      ],
      "name": "FundsReleaseRequested",
      "type": "event"
    },
    {
      "anonymous": false,
      "inputs": [
        {
          "indexed": true,
          "internalType": "address",
          "name": "campaign",
          "type": "address"
        },
        {
          "indexed": false,
          "internalType": "uint256",
          "name": "creatorAmount",
          "type": "uint256"
        },
        {
          "indexed": false,
          "internalType": "uint256",
          "name": "platformFee",
          "type": "uint256"
        }
      ],
      "name": "FundsReleased",
      "type": "event"
    },
    {
      "anonymous": false,
      "inputs": [
        {
          "indexed": true,
          "internalType": "address",
          "name": "token",
          "type": "address"
        }
      ],
      "name": "TokenRemovedFromWhitelist",
      "type": "event"
    },
    {
      "anonymous": false,
      "inputs": [
        {
          "indexed": true,
          "internalType": "address",
          "name": "token",
          "type": "address"
        }
      ],
      "name": "TokenWhitelisted",
      "type": "event"
    },
    {
      "inputs": [],
      "name": "TIMELOCK_DURATION",
      "outputs": [
        {
          "internalType": "uint256",
          "name": "",
          "type": "uint256"
        }
      ],
      "stateMutability": "view",
      "type": "function"
    },
    {
      "inputs": [
        {
          "internalType": "address",
          "name": "_campaign",
          "type": "address"
        }
      ],
      "name": "approveReleaseFunds",
      "outputs": [],
      "stateMutability": "nonpayable",
      "type": "function"
    },
    {
      "inputs": [
        {
          "internalType": "uint256",
          "name": "",
          "type": "uint256"
        }
      ],
      "name": "approvers",
      "outputs": [
        {
          "internalType": "address",
          "name": "",
          "type": "address"
        }
      ],
      "stateMutability": "view",
      "type": "function"
    },
    {
      "inputs": [
        {
          "internalType": "address",
          "name": "_token",
          "type": "address"
        },
        {
          "internalType": "address",
          "name": "_campaign",
          "type": "address"
        }
      ],
      "name": "claimERC20Refund",
      "outputs": [],
      "stateMutability": "nonpayable",
      "type": "function"
    },
    {
      "inputs": [
        {
          "internalType": "address",
          "name": "_campaign",
          "type": "address"
        }
      ],
      "name": "claimRefund",
      "outputs": [],
      "stateMutability": "nonpayable",
      "type": "function"
    },
    {
      "inputs": [
        {
          "internalType": "address",
          "name": "_campaign",
          "type": "address"
        }
      ],
      "name": "deposit",
      "outputs": [],
      "stateMutability": "payable",
      "type": "function"
    },
    {
      "inputs": [
        {
          "internalType": "address",
          "name": "_token",
          "type": "address"
        },
        {
          "internalType": "address",
          "name": "_campaign",
          "type": "address"
        },
        {
          "internalType": "uint256",
          "name": "_amount",
          "type": "uint256"
        }
      ],
      "name": "depositERC20",
      "outputs": [],
      "stateMutability": "nonpayable",
      "type": "function"
    },
    {
      "inputs": [
        {
          "internalType": "address",
          "name": "_token",
          "type": "address"
        }
      ],
      "name": "emergencyWithdrawERC20",
      "outputs": [],
      "stateMutability": "nonpayable",
      "type": "function"
    },
    {
      "inputs": [],
      "name": "emergencyWithdrawETH",
      "outputs": [],
      "stateMutability": "nonpayable",
      "type": "function"
    },
    {
      "inputs": [
        {
          "internalType": "address",
          "name": "",
          "type": "address"
        },
        {
          "internalType": "address",
          "name": "",
          "type": "address"
        },
        {
          "internalType": "address",
          "name": "",
          "type": "address"
        }
      ],
      "name": "erc20Deposits",
      "outputs": [
        {
          "internalType": "uint256",
          "name": "",
          "type": "uint256"
        }
      ],
      "stateMutability": "view",
      "type": "function"
    },
    {
      "inputs": [
        {
          "internalType": "address",
          "name": "",
          "type": "address"
        }
      ],
      "name": "escrows",
      "outputs": [
        {
          "internalType": "address",
          "name": "creator",
          "type": "address"
        },
        {
          "internalType": "address",
          "name": "campaign",
          "type": "address"
        },
        {
          "internalType": "uint256",
          "name": "goal",
          "type": "uint256"
        },
        {
          "internalType": "uint256",
          "name": "deadline",
          "type": "uint256"
        },
        {
          "internalType": "uint256",
          "name": "totalDeposited",
          "type": "uint256"
        },
        {
          "internalType": "enum EscrowManager.EscrowState",
          "name": "state",
          "type": "uint8"
        },
        {
          "internalType": "bool",
          "name": "isFlexibleFunding",
          "type": "bool"
        },
        {
          "internalType": "uint256",
          "name": "releaseRequestTime",
          "type": "uint256"
        },
        {
          "internalType": "uint256",
          "name": "approvalCount",
          "type": "uint256"
        }
      ],
      "stateMutability": "view",
      "type": "function"
    },
    {
      "inputs": [
        {
          "internalType": "address",
          "name": "",
          "type": "address"
        },
        {
          "internalType": "address",
          "name": "",
          "type": "address"
        }
      ],
      "name": "ethDeposits",
      "outputs": [
        {
          "internalType": "uint256",
          "name": "",
          "type": "uint256"
        }
      ],
      "stateMutability": "view",
      "type": "function"
    },
    {
      "inputs": [
        {
          "internalType": "address",
          "name": "_campaign",
          "type": "address"
        }
      ],
      "name": "getEscrowStatus",
      "outputs": [
        {
          "internalType": "enum EscrowManager.EscrowState",
          "name": "",
          "type": "uint8"
        }
      ],
      "stateMutability": "view",
      "type": "function"
    },
    {
      "inputs": [
        {
          "internalType": "address",
          "name": "_campaign",
          "type": "address"
        }
      ],
      "name": "getTotalDeposited",
      "outputs": [
        {
          "internalType": "uint256",
          "name": "",
          "type": "uint256"
        }
      ],
      "stateMutability": "view",
      "type": "function"
    },
    {
      "inputs": [
        {
          "internalType": "address",
          "name": "_campaign",
          "type": "address"
        },
        {
          "internalType": "address",
          "name": "_user",
          "type": "address"
        }
      ],
      "name": "getUserDeposit",
      "outputs": [
        {
          "internalType": "uint256",
          "name": "",
          "type": "uint256"
        }
      ],
      "stateMutability": "view",
      "type": "function"
    },
    {
      "inputs": [
        {
          "internalType": "address",
          "name": "_token",
          "type": "address"
        },
        {
          "internalType": "address",
          "name": "_campaign",
          "type": "address"
        },
        {
          "internalType": "address",
          "name": "_user",
          "type": "address"
        }
      ],
      "name": "getUserERC20Deposit",
      "outputs": [
        {
          "internalType": "uint256",
          "name": "",
          "type": "uint256"
        }
      ],
      "stateMutability": "view",
      "type": "function"
    },
    {
      "inputs": [
        {
          "internalType": "address",
          "name": "",
          "type": "address"
        },
        {
          "internalType": "address",
          "name": "",
          "type": "address"
        }
      ],
      "name": "hasApproved",
      "outputs": [
        {
          "internalType": "bool",
          "name": "",
          "type": "bool"
        }
      ],
      "stateMutability": "view",
      "type": "function"
    },
    {
      "inputs": [
        {
          "internalType": "address",
          "name": "_creator",
          "type": "address"
        },
        {
          "internalType": "address",
          "name": "_campaign",
          "type": "address"
        },
        {
          "internalType": "uint256",
          "name": "_goal",
          "type": "uint256"
        },
        {
          "internalType": "uint256",
          "name": "_deadline",
          "type": "uint256"
        },
        {
          "internalType": "bool",
          "name": "_isFlexibleFunding",
          "type": "bool"
        }
      ],
      "name": "initializeEscrow",
      "outputs": [],
      "stateMutability": "nonpayable",
      "type": "function"
    },
    {
      "inputs": [
        {
          "internalType": "address",
          "name": "",
          "type": "address"
        }
      ],
      "name": "isApprover",
      "outputs": [
        {
          "internalType": "bool",
          "name": "",
          "type": "bool"
        }
      ],
      "stateMutability": "view",
      "type": "function"
    },
    {
      "inputs": [],
      "name": "owner",
      "outputs": [
        {
          "internalType": "address",
          "name": "",
          "type": "address"
        }
      ],
      "stateMutability": "view",
      "type": "function"
    },
    {
      "inputs": [],
      "name": "platformFeePercentage",
      "outputs": [
        {
          "internalType": "uint256",
          "name": "",
          "type": "uint256"
        }
      ],
      "stateMutability": "view",
      "type": "function"
    },
    {
      "inputs": [
        {
          "internalType": "address",
          "name": "_campaign",
          "type": "address"
        }
      ],
      "name": "releaseFunds",
      "outputs": [],
      "stateMutability": "nonpayable",
      "type": "function"
    },
    {
      "inputs": [
        {
          "internalType": "address",
          "name": "_token",
          "type": "address"
        }
      ],
      "name": "removeTokenFromWhitelist",
      "outputs": [],
      "stateMutability": "nonpayable",
      "type": "function"
    },
    {
      "inputs": [
        {
          "internalType": "address",
          "name": "_campaign",
          "type": "address"
        }
      ],
      "name": "requestReleaseFunds",
      "outputs": [],
      "stateMutability": "nonpayable",
      "type": "function"
    },
    {
      "inputs": [],
      "name": "requiredApprovals",
      "outputs": [
        {
          "internalType": "uint256",
          "name": "",
          "type": "uint256"
        }
      ],
      "stateMutability": "view",
      "type": "function"
    },
    {
      "inputs": [
        {
          "internalType": "address",
          "name": "_token",
          "type": "address"
        }
      ],
      "name": "whitelistToken",
      "outputs": [],
      "stateMutability": "nonpayable",
      "type": "function"
    },
    {
      "inputs": [
        {
          "internalType": "address",
          "name": "",
          "type": "address"
        }
      ],
      "name": "whitelistedTokens",
      "outputs": [
        {
          "internalType": "bool",
          "name": "",
          "type": "bool"
        }
      ],
      "stateMutability": "view",
      "type": "function"
    }
  ],
  "bytecode": "0x60a06040523480156200001157600080fd5b506040516200471c3803806200471c8339818101604052810190620000379190620004a0565b6001600081905550600a83111562000086576040517f08c379a00000000000000000000000000000000000000000000000000000000081526004016200007d906200057c565b60405180910390fd5b60008111620000cc576040517f08c379a0000000000000000000000000000000000000000000000000000000008152600401620000c390620005ee565b60405180910390fd5b815181111562000113576040517f08c379a00000000000000000000000000000000000000000000000000000000081526004016200010a9062000660565b60405180910390fd5b3373ffffffffffffffffffffffffffffffffffffffff1660808173ffffffffffffffffffffffffffffffffffffffff1681525050826001819055508060038190555060005b82518110156200026d5760028382815181106200017a576200017962000682565b5b60200260200101519080600181540180825580915050600190039060005260206000200160009091909190916101000a81548173ffffffffffffffffffffffffffffffffffffffff021916908373ffffffffffffffffffffffffffffffffffffffff160217905550600160046000858481518110620001fe57620001fd62000682565b5b602002602001015173ffffffffffffffffffffffffffffffffffffffff1673ffffffffffffffffffffffffffffffffffffffff16815260200190815260200160002060006101000a81548160ff02191690831515021790555080806200026490620006e0565b91505062000158565b505050506200072d565b6000604051905090565b600080fd5b600080fd5b6000819050919050565b620002a0816200028b565b8114620002ac57600080fd5b50565b600081519050620002c08162000295565b92915050565b600080fd5b6000601f19601f8301169050919050565b7f4e487b7100000000000000000000000000000000000000000000000000000000600052604160045260246000fd5b6200031682620002cb565b810181811067ffffffffffffffff82111715620003385762000337620002dc565b5b80604052505050565b60006200034d62000277565b90506200035b82826200030b565b919050565b600067ffffffffffffffff8211156200037e576200037d620002dc565b5b602082029050602081019050919050565b600080fd5b600073ffffffffffffffffffffffffffffffffffffffff82169050919050565b6000620003c18262000394565b9050919050565b620003d381620003b4565b8114620003df57600080fd5b50565b600081519050620003f381620003c8565b92915050565b6000620004106200040a8462000360565b62000341565b905080838252602082019050602084028301858111156200043657620004356200038f565b5b835b818110156200046357806200044e8882620003e2565b84526020840193505060208101905062000438565b5050509392505050565b600082601f830112620004855762000484620002c6565b5b815162000497848260208601620003f9565b91505092915050565b600080600060608486031215620004bc57620004bb62000281565b5b6000620004cc86828701620002af565b935050602084015167ffffffffffffffff811115620004f057620004ef62000286565b5b620004fe868287016200046d565b92505060406200051186828701620002af565b9150509250925092565b600082825260208201905092915050565b7f46656520746f6f20686967680000000000000000000000000000000000000000600082015250565b600062000564600c836200051b565b915062000571826200052c565b602082019050919050565b60006020820190508181036000830152620005978162000555565b9050919050565b7f417070726f76616c732072657175697265640000000000000000000000000000600082015250565b6000620005d66012836200051b565b9150620005e3826200059e565b602082019050919050565b600060208201905081810360008301526200060981620005c7565b9050919050565b7f546f6f206d616e7920726571756972656420617070726f76616c730000000000600082015250565b600062000648601b836200051b565b9150620006558262000610565b602082019050919050565b600060208201905081810360008301526200067b8162000639565b9050919050565b7f4e487b7100000000000000000000000000000000000000000000000000000000600052603260045260246000fd5b7f4e487b7100000000000000000000000000000000000000000000000000000000600052601160045260246000fd5b6000620006ed826200028b565b91507fffffffffffffffffffffffffffffffffffffffffffffffffffffffffffffffff8203620007225762000721620006b1565b5b600182019050919050565b608051613f8d6200078f60003960008181610796015281816109170152818161113a0152818161134901528181611501015281816116310152818161179401528181611dc801528181611e5601528181611ebf01526126840152613f8d6000f3fe60806040526004361061019c5760003560e01c80636d218e48116100ec578063cdd78cfc1161008a578063daf9c21011610064578063daf9c210146105ee578063e3b52e581461062b578063e45a427214610668578063f340fa01146106a55761019c565b8063cdd78cfc1461055d578063d3650fb814610588578063d4ab8683146105c55761019c565b80639249ab7d116100c65780639249ab7d146104a357806399c1aadc146104cc578063bc926d00146104f7578063bffa55d5146105345761019c565b80636d218e481461042457806384536017146104615780638da5cb5b146104785761019c565b8063306275be11610159578063477230b211610133578063477230b2146103505780636124654a146103955780636247f6f2146103d2578063626c3826146103fb5761019c565b8063306275be146102d357806340c442de146102fc5780634623c81e146103255761019c565b80630c9c31bd146101a1578063148c658c146101de578063192e7a7b1461021b57806319648d88146102445780631cad5a4014610281578063239fe8e9146102aa575b600080fd5b3480156101ad57600080fd5b506101c860048036038101906101c39190612ec9565b6106c1565b6040516101d59190612f0f565b60405180910390f35b3480156101ea57600080fd5b5061020560048036038101906102009190612f2a565b61070d565b6040516102129190612f0f565b60405180910390f35b34801561022757600080fd5b50610242600480360381019061023d9190612ec9565b610794565b005b34801561025057600080fd5b5061026b60048036038101906102669190612f2a565b610c49565b6040516102789190612f85565b60405180910390f35b34801561028d57600080fd5b506102a860048036038101906102a39190612fcc565b610c78565b005b3480156102b657600080fd5b506102d160048036038101906102cc9190612ec9565b611102565b005b3480156102df57600080fd5b506102fa60048036038101906102f59190612ec9565b611347565b005b34801561030857600080fd5b50610323600480360381019061031e9190612ec9565b6114ff565b005b34801561033157600080fd5b5061033a6116be565b6040516103479190612f0f565b60405180910390f35b34801561035c57600080fd5b5061037760048036038101906103729190612ec9565b6116c5565b60405161038c999897969594939291906130a5565b60405180910390f35b3480156103a157600080fd5b506103bc60048036038101906103b79190612f2a565b61176d565b6040516103c99190612f0f565b60405180910390f35b3480156103de57600080fd5b506103f960048036038101906103f49190612ec9565b611792565b005b34801561040757600080fd5b50610422600480360381019061041d9190612f2a565b61194b565b005b34801561043057600080fd5b5061044b60048036038101906104469190612ec9565b611da6565b6040516104589190612f85565b60405180910390f35b34801561046d57600080fd5b50610476611dc6565b005b34801561048457600080fd5b5061048d611ebd565b60405161049a9190613132565b60405180910390f35b3480156104af57600080fd5b506104ca60048036038101906104c59190612ec9565b611ee1565b005b3480156104d857600080fd5b506104e16122b7565b6040516104ee9190612f0f565b60405180910390f35b34801561050357600080fd5b5061051e60048036038101906105199190612ec9565b6122bd565b60405161052b919061314d565b60405180910390f35b34801561054057600080fd5b5061055b60048036038101906105569190612ec9565b612316565b005b34801561056957600080fd5b5061057261263d565b60405161057f9190612f0f565b60405180910390f35b34801561059457600080fd5b506105af60048036038101906105aa9190613168565b612643565b6040516105bc9190613132565b60405180910390f35b3480156105d157600080fd5b506105ec60048036038101906105e791906131c1565b612682565b005b3480156105fa57600080fd5b5061061560048036038101906106109190612ec9565b612a01565b6040516106229190612f85565b60405180910390f35b34801561063757600080fd5b50610652600480360381019061064d919061323c565b612a21565b60405161065f9190612f0f565b60405180910390f35b34801561067457600080fd5b5061068f600480360381019061068a919061323c565b612ae6565b60405161069c9190612f0f565b60405180910390f35b6106bf60048036038101906106ba9190612ec9565b612b18565b005b6000600660008373ffffffffffffffffffffffffffffffffffffffff1673ffffffffffffffffffffffffffffffffffffffff168152602001908152602001600020600401549050919050565b6000600760008473ffffffffffffffffffffffffffffffffffffffff1673ffffffffffffffffffffffffffffffffffffffff16815260200190815260200160002060008373ffffffffffffffffffffffffffffffffffffffff1673ffffffffffffffffffffffffffffffffffffffff16815260200190815260200160002054905092915050565b7f000000000000000000000000000000000000000000000000000000000000000073ffffffffffffffffffffffffffffffffffffffff163373ffffffffffffffffffffffffffffffffffffffff1614610822576040517f08c379a0000000000000000000000000000000000000000000000000000000008152600401610819906132ec565b60405180910390fd5b6000600660008373ffffffffffffffffffffffffffffffffffffffff1673ffffffffffffffffffffffffffffffffffffffff1681526020019081526020016000209050600260038111156108795761087861302e565b5b8160050160009054906101000a900460ff16600381111561089d5761089c61302e565b5b146108dd576040517f08c379a00000000000000000000000000000000000000000000000000000000081526004016108d490613358565b60405180910390fd5b6000606460015483600401546108f391906133a7565b6108fd9190613418565b905060008183600401546109119190613449565b905060007f000000000000000000000000000000000000000000000000000000000000000073ffffffffffffffffffffffffffffffffffffffff1683604051610959906134ae565b60006040518083038185875af1925050503d8060008114610996576040519150601f19603f3d011682016040523d82523d6000602084013e61099b565b606091505b50509050806109df576040517f08c379a00000000000000000000000000000000000000000000000000000000081526004016109d69061350f565b60405180910390fd5b60008460000160009054906101000a900473ffffffffffffffffffffffffffffffffffffffff1673ffffffffffffffffffffffffffffffffffffffff1683604051610a29906134ae565b60006040518083038185875af1925050503d8060008114610a66576040519150601f19603f3d011682016040523d82523d6000602084013e610a6b565b606091505b5050905080610aaf576040517f08c379a0000000000000000000000000000000000000000000000000000000008152600401610aa69061357b565b60405180910390fd5b8573ffffffffffffffffffffffffffffffffffffffff167fc90c76155d237557f9162f07cd0da2ff40418cd82028c0e89535270fb9de51048486604051610af792919061359b565b60405180910390a260008560050160006101000a81548160ff02191690836003811115610b2757610b2661302e565b5b021790555060008560040181905550600085600601819055506000856007018190555060005b600280549050811015610c405760006005600060028481548110610b7457610b736135c4565b5b9060005260206000200160009054906101000a900473ffffffffffffffffffffffffffffffffffffffff1673ffffffffffffffffffffffffffffffffffffffff1673ffffffffffffffffffffffffffffffffffffffff16815260200190815260200160002060008973ffffffffffffffffffffffffffffffffffffffff1673ffffffffffffffffffffffffffffffffffffffff16815260200190815260200160002060006101000a81548160ff0219169083151502179055508080610c38906135f3565b915050610b4d565b50505050505050565b60056020528160005260406000206020528060005260406000206000915091509054906101000a900460ff1681565b610c80612e16565b600960008473ffffffffffffffffffffffffffffffffffffffff1673ffffffffffffffffffffffffffffffffffffffff16815260200190815260200160002060009054906101000a900460ff16610d0c576040517f08c379a0000000000000000000000000000000000000000000000000000000008152600401610d0390613687565b60405180910390fd5b6000600660008473ffffffffffffffffffffffffffffffffffffffff1673ffffffffffffffffffffffffffffffffffffffff1681526020019081526020016000209050600073ffffffffffffffffffffffffffffffffffffffff168160000160009054906101000a900473ffffffffffffffffffffffffffffffffffffffff1673ffffffffffffffffffffffffffffffffffffffff1603610de2576040517f08c379a0000000000000000000000000000000000000000000000000000000008152600401610dd9906136f3565b60405180910390fd5b60006003811115610df657610df561302e565b5b8160050160009054906101000a900460ff166003811115610e1a57610e1961302e565b5b14610e5a576040517f08c379a0000000000000000000000000000000000000000000000000000000008152600401610e519061375f565b60405180910390fd5b80600301544210610ea0576040517f08c379a0000000000000000000000000000000000000000000000000000000008152600401610e97906137cb565b60405180910390fd5b60008211610ee3576040517f08c379a0000000000000000000000000000000000000000000000000000000008152600401610eda90613837565b60405180910390fd5b60008473ffffffffffffffffffffffffffffffffffffffff166323b872dd3330866040518463ffffffff1660e01b8152600401610f2293929190613857565b6020604051808303816000875af1158015610f41573d6000803e3d6000fd5b505050506040513d601f19601f82011682018060405250810190610f6591906138a3565b905080610fa7576040517f08c379a0000000000000000000000000000000000000000000000000000000008152600401610f9e9061391c565b60405180910390fd5b82600860008773ffffffffffffffffffffffffffffffffffffffff1673ffffffffffffffffffffffffffffffffffffffff16815260200190815260200160002060008673ffffffffffffffffffffffffffffffffffffffff1673ffffffffffffffffffffffffffffffffffffffff16815260200190815260200160002060003373ffffffffffffffffffffffffffffffffffffffff1673ffffffffffffffffffffffffffffffffffffffff1681526020019081526020016000206000828254611070919061393c565b925050819055503373ffffffffffffffffffffffffffffffffffffffff168473ffffffffffffffffffffffffffffffffffffffff168673ffffffffffffffffffffffffffffffffffffffff167f08118a017b3801240b705bdc2cf5a757f0a6dc36c5daab13ee19de431f5e46b5866040516110eb9190612f0f565b60405180910390a450506110fd612e5c565b505050565b808073ffffffffffffffffffffffffffffffffffffffff163373ffffffffffffffffffffffffffffffffffffffff16148061118857507f000000000000000000000000000000000000000000000000000000000000000073ffffffffffffffffffffffffffffffffffffffff163373ffffffffffffffffffffffffffffffffffffffff16145b6111c7576040517f08c379a00000000000000000000000000000000000000000000000000000000081526004016111be906139bc565b60405180910390fd5b6000600660008473ffffffffffffffffffffffffffffffffffffffff1673ffffffffffffffffffffffffffffffffffffffff16815260200190815260200160002090506000600381111561121e5761121d61302e565b5b8160050160009054906101000a900460ff1660038111156112425761124161302e565b5b14611282576040517f08c379a00000000000000000000000000000000000000000000000000000000081526004016112799061375f565b60405180910390fd5b80600301544210156112c9576040517f08c379a00000000000000000000000000000000000000000000000000000000081526004016112c090613a28565b60405180910390fd5b60018160050160006101000a81548160ff021916908360038111156112f1576112f061302e565b5b02179055504281600601819055508273ffffffffffffffffffffffffffffffffffffffff167f70acf2a2f71146e8c60e15845332b84888658deed14d4e928a0cd9b09aafc6f860405160405180910390a2505050565b7f000000000000000000000000000000000000000000000000000000000000000073ffffffffffffffffffffffffffffffffffffffff163373ffffffffffffffffffffffffffffffffffffffff16146113d5576040517f08c379a00000000000000000000000000000000000000000000000000000000081526004016113cc906132ec565b60405180910390fd5b600960008273ffffffffffffffffffffffffffffffffffffffff1673ffffffffffffffffffffffffffffffffffffffff16815260200190815260200160002060009054906101000a900460ff16611461576040517f08c379a000000000000000000000000000000000000000000000000000000000815260040161145890613a94565b60405180910390fd5b6000600960008373ffffffffffffffffffffffffffffffffffffffff1673ffffffffffffffffffffffffffffffffffffffff16815260200190815260200160002060006101000a81548160ff0219169083151502179055508073ffffffffffffffffffffffffffffffffffffffff167fdd2e6d9f52cbe8f695939d018b7d4a216dc613a669876163ac548b916489d91760405160405180910390a250565b7f000000000000000000000000000000000000000000000000000000000000000073ffffffffffffffffffffffffffffffffffffffff163373ffffffffffffffffffffffffffffffffffffffff161461158d576040517f08c379a0000000000000000000000000000000000000000000000000000000008152600401611584906132ec565b60405180910390fd5b611595612e16565b60008173ffffffffffffffffffffffffffffffffffffffff166370a08231306040518263ffffffff1660e01b81526004016115d09190613132565b602060405180830381865afa1580156115ed573d6000803e3d6000fd5b505050506040513d601f19601f820116820180604052508101906116119190613ac9565b90508173ffffffffffffffffffffffffffffffffffffffff1663a9059cbb7f0000000000000000000000000000000000000000000000000000000000000000836040518363ffffffff1660e01b815260040161166e929190613af6565b6020604051808303816000875af115801561168d573d6000803e3d6000fd5b505050506040513d601f19601f820116820180604052508101906116b191906138a3565b50506116bb612e5c565b50565b6202a30081565b60066020528060005260406000206000915090508060000160009054906101000a900473ffffffffffffffffffffffffffffffffffffffff16908060010160009054906101000a900473ffffffffffffffffffffffffffffffffffffffff16908060020154908060030154908060040154908060050160009054906101000a900460ff16908060050160019054906101000a900460ff16908060060154908060070154905089565b6007602052816000526040600020602052806000526040600020600091509150505481565b7f000000000000000000000000000000000000000000000000000000000000000073ffffffffffffffffffffffffffffffffffffffff163373ffffffffffffffffffffffffffffffffffffffff1614611820576040517f08c379a0000000000000000000000000000000000000000000000000000000008152600401611817906132ec565b60405180910390fd5b600960008273ffffffffffffffffffffffffffffffffffffffff1673ffffffffffffffffffffffffffffffffffffffff16815260200190815260200160002060009054906101000a900460ff16156118ad576040517f08c379a00000000000000000000000000000000000000000000000000000000081526004016118a490613b6b565b60405180910390fd5b6001600960008373ffffffffffffffffffffffffffffffffffffffff1673ffffffffffffffffffffffffffffffffffffffff16815260200190815260200160002060006101000a81548160ff0219169083151502179055508073ffffffffffffffffffffffffffffffffffffffff167f6a65f90b1a644d2faac467a21e07e50e3f8fa5846e26231d30ae79a417d3d26260405160405180910390a250565b611953612e16565b600960008373ffffffffffffffffffffffffffffffffffffffff1673ffffffffffffffffffffffffffffffffffffffff16815260200190815260200160002060009054906101000a900460ff166119df576040517f08c379a00000000000000000000000000000000000000000000000000000000081526004016119d690613687565b60405180910390fd5b6000600660008373ffffffffffffffffffffffffffffffffffffffff1673ffffffffffffffffffffffffffffffffffffffff1681526020019081526020016000209050600380811115611a3557611a3461302e565b5b8160050160009054906101000a900460ff166003811115611a5957611a5861302e565b5b14611a99576040517f08c379a0000000000000000000000000000000000000000000000000000000008152600401611a9090613bd7565b60405180910390fd5b6000600860008573ffffffffffffffffffffffffffffffffffffffff1673ffffffffffffffffffffffffffffffffffffffff16815260200190815260200160002060008473ffffffffffffffffffffffffffffffffffffffff1673ffffffffffffffffffffffffffffffffffffffff16815260200190815260200160002060003373ffffffffffffffffffffffffffffffffffffffff1673ffffffffffffffffffffffffffffffffffffffff16815260200190815260200160002054905060008111611b9a576040517f08c379a0000000000000000000000000000000000000000000000000000000008152600401611b9190613c43565b60405180910390fd5b6000600860008673ffffffffffffffffffffffffffffffffffffffff1673ffffffffffffffffffffffffffffffffffffffff16815260200190815260200160002060008573ffffffffffffffffffffffffffffffffffffffff1673ffffffffffffffffffffffffffffffffffffffff16815260200190815260200160002060003373ffffffffffffffffffffffffffffffffffffffff1673ffffffffffffffffffffffffffffffffffffffff1681526020019081526020016000208190555060008473ffffffffffffffffffffffffffffffffffffffff1663a9059cbb33846040518363ffffffff1660e01b8152600401611c96929190613af6565b6020604051808303816000875af1158015611cb5573d6000803e3d6000fd5b505050506040513d601f19601f82011682018060405250810190611cd991906138a3565b905080611d1b576040517f08c379a0000000000000000000000000000000000000000000000000000000008152600401611d129061391c565b60405180910390fd5b3373ffffffffffffffffffffffffffffffffffffffff168473ffffffffffffffffffffffffffffffffffffffff168673ffffffffffffffffffffffffffffffffffffffff167f646a6798d76373f68ffe56bba741d4d3cdf015ed991f7bc37d0555a67807ff6b85604051611d8f9190612f0f565b60405180910390a4505050611da2612e5c565b5050565b60046020528060005260406000206000915054906101000a900460ff1681565b7f000000000000000000000000000000000000000000000000000000000000000073ffffffffffffffffffffffffffffffffffffffff163373ffffffffffffffffffffffffffffffffffffffff1614611e54576040517f08c379a0000000000000000000000000000000000000000000000000000000008152600401611e4b906132ec565b60405180910390fd5b7f000000000000000000000000000000000000000000000000000000000000000073ffffffffffffffffffffffffffffffffffffffff166108fc479081150290604051600060405180830381858888f19350505050158015611eba573d6000803e3d6000fd5b50565b7f000000000000000000000000000000000000000000000000000000000000000081565b600460003373ffffffffffffffffffffffffffffffffffffffff1673ffffffffffffffffffffffffffffffffffffffff16815260200190815260200160002060009054906101000a900460ff16611f6d576040517f08c379a0000000000000000000000000000000000000000000000000000000008152600401611f6490613caf565b60405180910390fd5b6000600660008373ffffffffffffffffffffffffffffffffffffffff1673ffffffffffffffffffffffffffffffffffffffff168152602001908152602001600020905060016003811115611fc457611fc361302e565b5b8160050160009054906101000a900460ff166003811115611fe857611fe761302e565b5b14612028576040517f08c379a000000000000000000000000000000000000000000000000000000000815260040161201f90613d1b565b60405180910390fd5b600560003373ffffffffffffffffffffffffffffffffffffffff1673ffffffffffffffffffffffffffffffffffffffff16815260200190815260200160002060008373ffffffffffffffffffffffffffffffffffffffff1673ffffffffffffffffffffffffffffffffffffffff16815260200190815260200160002060009054906101000a900460ff16156120f2576040517f08c379a00000000000000000000000000000000000000000000000000000000081526004016120e990613d87565b60405180910390fd5b6001600560003373ffffffffffffffffffffffffffffffffffffffff1673ffffffffffffffffffffffffffffffffffffffff16815260200190815260200160002060008473ffffffffffffffffffffffffffffffffffffffff1673ffffffffffffffffffffffffffffffffffffffff16815260200190815260200160002060006101000a81548160ff02191690831515021790555080600701600081548092919061219c906135f3565b91905055503373ffffffffffffffffffffffffffffffffffffffff168273ffffffffffffffffffffffffffffffffffffffff167f7c93f7db6e1b326bd5be457cfdd5d47bea702f1ad2a8a66ae3fc922466de6bf160405160405180910390a360035481600701541015801561222357506202a300816006015461221f919061393c565b4210155b156122b3578060020154816004015410158061224d57508060050160019054906101000a900460ff165b156122845760028160050160006101000a81548160ff0219169083600381111561227a5761227961302e565b5b02179055506122b2565b60038160050160006101000a81548160ff021916908360038111156122ac576122ab61302e565b5b02179055505b5b5050565b60035481565b6000600660008373ffffffffffffffffffffffffffffffffffffffff1673ffffffffffffffffffffffffffffffffffffffff16815260200190815260200160002060050160009054906101000a900460ff169050919050565b61231e612e16565b6000600660008373ffffffffffffffffffffffffffffffffffffffff1673ffffffffffffffffffffffffffffffffffffffff16815260200190815260200160002090506003808111156123745761237361302e565b5b8160050160009054906101000a900460ff1660038111156123985761239761302e565b5b146123d8576040517f08c379a00000000000000000000000000000000000000000000000000000000081526004016123cf90613bd7565b60405180910390fd5b6000600760008473ffffffffffffffffffffffffffffffffffffffff1673ffffffffffffffffffffffffffffffffffffffff16815260200190815260200160002060003373ffffffffffffffffffffffffffffffffffffffff1673ffffffffffffffffffffffffffffffffffffffff1681526020019081526020016000205490506000811161249c576040517f08c379a000000000000000000000000000000000000000000000000000000000815260040161249390613df3565b60405180910390fd5b6000600760008573ffffffffffffffffffffffffffffffffffffffff1673ffffffffffffffffffffffffffffffffffffffff16815260200190815260200160002060003373ffffffffffffffffffffffffffffffffffffffff1673ffffffffffffffffffffffffffffffffffffffff1681526020019081526020016000208190555060003373ffffffffffffffffffffffffffffffffffffffff1682604051612544906134ae565b60006040518083038185875af1925050503d8060008114612581576040519150601f19603f3d011682016040523d82523d6000602084013e612586565b606091505b50509050806125ca576040517f08c379a00000000000000000000000000000000000000000000000000000000081526004016125c19061391c565b60405180910390fd5b3373ffffffffffffffffffffffffffffffffffffffff168473ffffffffffffffffffffffffffffffffffffffff167f3c0bf07453018e75735d524dc68608940318d314acf0b6f69569f251a506ad07846040516126279190612f0f565b60405180910390a350505061263a612e5c565b50565b60015481565b6002818154811061265357600080fd5b906000526020600020016000915054906101000a900473ffffffffffffffffffffffffffffffffffffffff1681565b7f000000000000000000000000000000000000000000000000000000000000000073ffffffffffffffffffffffffffffffffffffffff163373ffffffffffffffffffffffffffffffffffffffff1614612710576040517f08c379a0000000000000000000000000000000000000000000000000000000008152600401612707906132ec565b60405180910390fd5b600073ffffffffffffffffffffffffffffffffffffffff16600660008673ffffffffffffffffffffffffffffffffffffffff1673ffffffffffffffffffffffffffffffffffffffff16815260200190815260200160002060000160009054906101000a900473ffffffffffffffffffffffffffffffffffffffff1673ffffffffffffffffffffffffffffffffffffffff16146127e1576040517f08c379a00000000000000000000000000000000000000000000000000000000081526004016127d890613e5f565b60405180910390fd5b428211612823576040517f08c379a000000000000000000000000000000000000000000000000000000000815260040161281a90613ecb565b60405180910390fd5b6040518061012001604052808673ffffffffffffffffffffffffffffffffffffffff1681526020018573ffffffffffffffffffffffffffffffffffffffff168152602001848152602001838152602001600081526020016000600381111561288e5761288d61302e565b5b81526020018215158152602001600081526020016000815250600660008673ffffffffffffffffffffffffffffffffffffffff1673ffffffffffffffffffffffffffffffffffffffff16815260200190815260200160002060008201518160000160006101000a81548173ffffffffffffffffffffffffffffffffffffffff021916908373ffffffffffffffffffffffffffffffffffffffff16021790555060208201518160010160006101000a81548173ffffffffffffffffffffffffffffffffffffffff021916908373ffffffffffffffffffffffffffffffffffffffff16021790555060408201518160020155606082015181600301556080820151816004015560a08201518160050160006101000a81548160ff021916908360038111156129bd576129bc61302e565b5b021790555060c08201518160050160016101000a81548160ff02191690831515021790555060e0820151816006015561010082015181600701559050505050505050565b60096020528060005260406000206000915054906101000a900460ff1681565b6000600860008573ffffffffffffffffffffffffffffffffffffffff1673ffffffffffffffffffffffffffffffffffffffff16815260200190815260200160002060008473ffffffffffffffffffffffffffffffffffffffff1673ffffffffffffffffffffffffffffffffffffffff16815260200190815260200160002060008373ffffffffffffffffffffffffffffffffffffffff1673ffffffffffffffffffffffffffffffffffffffff1681526020019081526020016000205490509392505050565b600860205282600052604060002060205281600052604060002060205280600052604060002060009250925050505481565b612b20612e16565b6000600660008373ffffffffffffffffffffffffffffffffffffffff1673ffffffffffffffffffffffffffffffffffffffff1681526020019081526020016000209050600073ffffffffffffffffffffffffffffffffffffffff168160000160009054906101000a900473ffffffffffffffffffffffffffffffffffffffff1673ffffffffffffffffffffffffffffffffffffffff1603612bf6576040517f08c379a0000000000000000000000000000000000000000000000000000000008152600401612bed906136f3565b60405180910390fd5b60006003811115612c0a57612c0961302e565b5b8160050160009054906101000a900460ff166003811115612c2e57612c2d61302e565b5b14612c6e576040517f08c379a0000000000000000000000000000000000000000000000000000000008152600401612c659061375f565b60405180910390fd5b80600301544210612cb4576040517f08c379a0000000000000000000000000000000000000000000000000000000008152600401612cab906137cb565b60405180910390fd5b60003411612cf7576040517f08c379a0000000000000000000000000000000000000000000000000000000008152600401612cee90613f37565b60405180910390fd5b34600760008473ffffffffffffffffffffffffffffffffffffffff1673ffffffffffffffffffffffffffffffffffffffff16815260200190815260200160002060003373ffffffffffffffffffffffffffffffffffffffff1673ffffffffffffffffffffffffffffffffffffffff1681526020019081526020016000206000828254612d83919061393c565b9250508190555034816004016000828254612d9e919061393c565b925050819055503373ffffffffffffffffffffffffffffffffffffffff168273ffffffffffffffffffffffffffffffffffffffff167ff0d0e99cae184d0187b093b48894117462462379674a6e11d89c3fbb618e96b034604051612e029190612f0f565b60405180910390a350612e13612e5c565b50565b600260005403612e52576040517f3ee5aeb500000000000000000000000000000000000000000000000000000000815260040160405180910390fd5b6002600081905550565b6001600081905550565b600080fd5b600073ffffffffffffffffffffffffffffffffffffffff82169050919050565b6000612e9682612e6b565b9050919050565b612ea681612e8b565b8114612eb157600080fd5b50565b600081359050612ec381612e9d565b92915050565b600060208284031215612edf57612ede612e66565b5b6000612eed84828501612eb4565b91505092915050565b6000819050919050565b612f0981612ef6565b82525050565b6000602082019050612f246000830184612f00565b92915050565b60008060408385031215612f4157612f40612e66565b5b6000612f4f85828601612eb4565b9250506020612f6085828601612eb4565b9150509250929050565b60008115159050919050565b612f7f81612f6a565b82525050565b6000602082019050612f9a6000830184612f76565b92915050565b612fa981612ef6565b8114612fb457600080fd5b50565b600081359050612fc681612fa0565b92915050565b600080600060608486031215612fe557612fe4612e66565b5b6000612ff386828701612eb4565b935050602061300486828701612eb4565b925050604061301586828701612fb7565b9150509250925092565b61302881612e8b565b82525050565b7f4e487b7100000000000000000000000000000000000000000000000000000000600052602160045260246000fd5b6004811061306e5761306d61302e565b5b50565b600081905061307f8261305d565b919050565b600061308f82613071565b9050919050565b61309f81613084565b82525050565b6000610120820190506130bb600083018c61301f565b6130c8602083018b61301f565b6130d5604083018a612f00565b6130e26060830189612f00565b6130ef6080830188612f00565b6130fc60a0830187613096565b61310960c0830186612f76565b61311660e0830185612f00565b613124610100830184612f00565b9a9950505050505050505050565b6000602082019050613147600083018461301f565b92915050565b60006020820190506131626000830184613096565b92915050565b60006020828403121561317e5761317d612e66565b5b600061318c84828501612fb7565b91505092915050565b61319e81612f6a565b81146131a957600080fd5b50565b6000813590506131bb81613195565b92915050565b600080600080600060a086880312156131dd576131dc612e66565b5b60006131eb88828901612eb4565b95505060206131fc88828901612eb4565b945050604061320d88828901612fb7565b935050606061321e88828901612fb7565b925050608061322f888289016131ac565b9150509295509295909350565b60008060006060848603121561325557613254612e66565b5b600061326386828701612eb4565b935050602061327486828701612eb4565b925050604061328586828701612eb4565b9150509250925092565b600082825260208201905092915050565b7f4f6e6c79206f776e657200000000000000000000000000000000000000000000600082015250565b60006132d6600a8361328f565b91506132e1826132a0565b602082019050919050565b60006020820190508181036000830152613305816132c9565b9050919050565b7f4e6f7420726561647920666f722072656c656173650000000000000000000000600082015250565b600061334260158361328f565b915061334d8261330c565b602082019050919050565b6000602082019050818103600083015261337181613335565b9050919050565b7f4e487b7100000000000000000000000000000000000000000000000000000000600052601160045260246000fd5b60006133b282612ef6565b91506133bd83612ef6565b92508282026133cb81612ef6565b915082820484148315176133e2576133e1613378565b5b5092915050565b7f4e487b7100000000000000000000000000000000000000000000000000000000600052601260045260246000fd5b600061342382612ef6565b915061342e83612ef6565b92508261343e5761343d6133e9565b5b828204905092915050565b600061345482612ef6565b915061345f83612ef6565b925082820390508181111561347757613476613378565b5b92915050565b600081905092915050565b50565b600061349860008361347d565b91506134a382613488565b600082019050919050565b60006134b98261348b565b9150819050919050565b7f506c6174666f726d20666565207472616e73666572206661696c656400000000600082015250565b60006134f9601c8361328f565b9150613504826134c3565b602082019050919050565b60006020820190508181036000830152613528816134ec565b9050919050565b7f43726561746f72207472616e73666572206661696c6564000000000000000000600082015250565b600061356560178361328f565b91506135708261352f565b602082019050919050565b6000602082019050818103600083015261359481613558565b9050919050565b60006040820190506135b06000830185612f00565b6135bd6020830184612f00565b9392505050565b7f4e487b7100000000000000000000000000000000000000000000000000000000600052603260045260246000fd5b60006135fe82612ef6565b91507fffffffffffffffffffffffffffffffffffffffffffffffffffffffffffffffff82036136305761362f613378565b5b600182019050919050565b7f546f6b656e206e6f742077686974656c69737465640000000000000000000000600082015250565b600061367160158361328f565b915061367c8261363b565b602082019050919050565b600060208201905081810360008301526136a081613664565b9050919050565b7f496e76616c69642063616d706169676e00000000000000000000000000000000600082015250565b60006136dd60108361328f565b91506136e8826136a7565b602082019050919050565b6000602082019050818103600083015261370c816136d0565b9050919050565b7f4e6f742061637469766500000000000000000000000000000000000000000000600082015250565b6000613749600a8361328f565b915061375482613713565b602082019050919050565b600060208201905081810360008301526137788161373c565b9050919050565b7f43616d706169676e20656e646564000000000000000000000000000000000000600082015250565b60006137b5600e8361328f565b91506137c08261377f565b602082019050919050565b600060208201905081810360008301526137e4816137a8565b9050919050565b7f416d6f756e74206d757374206265203e20300000000000000000000000000000600082015250565b600061382160128361328f565b915061382c826137eb565b602082019050919050565b6000602082019050818103600083015261385081613814565b9050919050565b600060608201905061386c600083018661301f565b613879602083018561301f565b6138866040830184612f00565b949350505050565b60008151905061389d81613195565b92915050565b6000602082840312156138b9576138b8612e66565b5b60006138c78482850161388e565b91505092915050565b7f5472616e73666572206661696c65640000000000000000000000000000000000600082015250565b6000613906600f8361328f565b9150613911826138d0565b602082019050919050565b60006020820190508181036000830152613935816138f9565b9050919050565b600061394782612ef6565b915061395283612ef6565b925082820190508082111561396a57613969613378565b5b92915050565b7f4e6f7420617574686f72697a6564000000000000000000000000000000000000600082015250565b60006139a6600e8361328f565b91506139b182613970565b602082019050919050565b600060208201905081810360008301526139d581613999565b9050919050565b7f43616d706169676e206e6f7420656e6465640000000000000000000000000000600082015250565b6000613a1260128361328f565b9150613a1d826139dc565b602082019050919050565b60006020820190508181036000830152613a4181613a05565b9050919050565b7f4e6f742077686974656c69737465640000000000000000000000000000000000600082015250565b6000613a7e600f8361328f565b9150613a8982613a48565b602082019050919050565b60006020820190508181036000830152613aad81613a71565b9050919050565b600081519050613ac381612fa0565b92915050565b600060208284031215613adf57613ade612e66565b5b6000613aed84828501613ab4565b91505092915050565b6000604082019050613b0b600083018561301f565b613b186020830184612f00565b9392505050565b7f416c72656164792077686974656c697374656400000000000000000000000000600082015250565b6000613b5560138361328f565b9150613b6082613b1f565b602082019050919050565b60006020820190508181036000830152613b8481613b48565b9050919050565b7f4e6f7420726566756e6465640000000000000000000000000000000000000000600082015250565b6000613bc1600c8361328f565b9150613bcc82613b8b565b602082019050919050565b60006020820190508181036000830152613bf081613bb4565b9050919050565b7f4e6f20746f6b656e7320746f20726566756e6400000000000000000000000000600082015250565b6000613c2d60138361328f565b9150613c3882613bf7565b602082019050919050565b60006020820190508181036000830152613c5c81613c20565b9050919050565b7f4e6f7420616e20617070726f7665720000000000000000000000000000000000600082015250565b6000613c99600f8361328f565b9150613ca482613c63565b602082019050919050565b60006020820190508181036000830152613cc881613c8c565b9050919050565b7f4e6f742070656e64696e67000000000000000000000000000000000000000000600082015250565b6000613d05600b8361328f565b9150613d1082613ccf565b602082019050919050565b60006020820190508181036000830152613d3481613cf8565b9050919050565b7f416c726561647920617070726f76656400000000000000000000000000000000600082015250565b6000613d7160108361328f565b9150613d7c82613d3b565b602082019050919050565b60006020820190508181036000830152613da081613d64565b9050919050565b7f4e6f2045544820746f20726566756e6400000000000000000000000000000000600082015250565b6000613ddd60108361328f565b9150613de882613da7565b602082019050919050565b60006020820190508181036000830152613e0c81613dd0565b9050919050565b7f457363726f772065786973747300000000000000000000000000000000000000600082015250565b6000613e49600d8361328f565b9150613e5482613e13565b602082019050919050565b60006020820190508181036000830152613e7881613e3c565b9050919050565b7f446561646c696e65207061737365640000000000000000000000000000000000600082015250565b6000613eb5600f8361328f565b9150613ec082613e7f565b602082019050919050565b60006020820190508181036000830152613ee481613ea8565b9050919050565b7f4d757374206465706f7369742045544800000000000000000000000000000000600082015250565b6000613f2160108361328f565b9150613f2c82613eeb565b602082019050919050565b60006020820190508181036000830152613f5081613f14565b905091905056fea2646970667358221220eaec3c4a76c6e007e37a87d4dc2eb7fc37d0ba7e8210172cb2df919a9fb31d6c64736f6c63430008140033",
  "linkReferences": {},
  "deployedLinkReferences": {}
}