{
  "_format": "hh-sol-artifact-1",
  "contractName": "CrowdfundingFactory",
  "sourceName": "contracts/CrowdfundingFactory.sol",
  "abi": [
    {
      "inputs": [
        {
          "internalType": "uint256",
          "name": "_platformFeePercentage",
          "type": "uint256"
        }
      ],
      "stateMutability": "nonpayable",
      "type": "constructor"
    },
    {
      "inputs": [
        {
          "internalType": "address",
          "name": "owner",
          "type": "address"
        }
      ],
      "name": "OwnableInvalidOwner",
      "type": "error"
    },
    {
      "inputs": [
        {
          "internalType": "address",
          "name": "account",
          "type": "address"
        }
      ],
      "name": "OwnableUnauthorizedAccount",
      "type": "error"
    },
    {
      "anonymous": false,
      "inputs": [
        {
          "indexed": true,
          "internalType": "address",
          "name": "creator",
          "type": "address"
        },
        {
          "indexed": false,
          "internalType": "address",
          "name": "campaignAddress",
          "type": "address"
        },
        {
          "indexed": false,
          "internalType": "uint256",
          "name": "goal",
          "type": "uint256"
        },
        {
          "indexed": false,
          "internalType": "uint256",
          "name": "deadline",
          "type": "uint256"
        },
        {
          "indexed": false,
          "internalType": "string",
          "name": "title",
          "type": "string"
        }
      ],
      "name": "CampaignCreated",
      "type": "event"
    },
    {
      "anonymous": false,
      "inputs": [
        {
          "indexed": true,
          "internalType": "address",
          "name": "previousOwner",
          "type": "address"
        },
        {
          "indexed": true,
          "internalType": "address",
          "name": "newOwner",
          "type": "address"
        }
      ],
      "name": "OwnershipTransferred",
      "type": "event"
    },
    {
      "anonymous": false,
      "inputs": [
        {
          "indexed": false,
          "internalType": "uint256",
          "name": "newFee",
          "type": "uint256"
        }
      ],
      "name": "PlatformFeeChanged",
      "type": "event"
    },
    {
      "inputs": [
        {
          "internalType": "uint256",
          "name": "",
          "type": "uint256"
        }
      ],
      "name": "allCampaigns",
      "outputs": [
        {
          "internalType": "address",
          "name": "",
          "type": "address"
        }
      ],
      "stateMutability": "view",
      "type": "function"
    },
    {
      "inputs": [
        {
          "internalType": "uint256",
          "name": "_goal",
          "type": "uint256"
        },
        {
          "internalType": "uint256",
          "name": "_deadline",
          "type": "uint256"
        },
        {
          "internalType": "string",
          "name": "_title",
          "type": "string"
        },
        {
          "internalType": "string",
          "name": "_description",
          "type": "string"
        },
        {
          "internalType": "string",
          "name": "_imageURL",
          "type": "string"
        },
        {
          "internalType": "bool",
          "name": "_isFlexibleFunding",
          "type": "bool"
        }
      ],
      "name": "createCampaign",
      "outputs": [
        {
          "internalType": "address",
          "name": "campaignAddress",
          "type": "address"
        }
      ],
      "stateMutability": "nonpayable",
      "type": "function"
    },
    {
      "inputs": [],
      "name": "getTotalCampaigns",
      "outputs": [
        {
          "internalType": "uint256",
          "name": "",
          "type": "uint256"
        }
      ],
      "stateMutability": "view",
      "type": "function"
    },
    {
      "inputs": [
        {
          "internalType": "address",
          "name": "_user",
          "type": "address"
        }
      ],
      "name": "getUserCampaigns",
      "outputs": [
        {
          "internalType": "address[]",
          "name": "",
          "type": "address[]"
        }
      ],
      "stateMutability": "view",
      "type": "function"
    },
    {
      "inputs": [],
      "name": "owner",
      "outputs": [
        {
          "internalType": "address",
          "name": "",
          "type": "address"
        }
      ],
      "stateMutability": "view",
      "type": "function"
    },
    {
      "inputs": [],
      "name": "platformFeePercentage",
      "outputs": [
        {
          "internalType": "uint256",
          "name": "",
          "type": "uint256"
        }
      ],
      "stateMutability": "view",
      "type": "function"
    },
    {
      "inputs": [
        {
          "internalType": "uint256",
          "name": "_amountRaised",
          "type": "uint256"
        },
        {
          "internalType": "uint256",
          "name": "_contributorCount",
          "type": "uint256"
        }
      ],
      "name": "recordSuccessfulCampaign",
      "outputs": [],
      "stateMutability": "nonpayable",
      "type": "function"
    },
    {
      "inputs": [],
      "name": "renounceOwnership",
      "outputs": [],
      "stateMutability": "nonpayable",
      "type": "function"
    },
    {
      "inputs": [
        {
          "internalType": "uint256",
          "name": "_newFee",
          "type": "uint256"
        }
      ],
      "name": "setPlatformFee",
      "outputs": [],
      "stateMutability": "nonpayable",
      "type": "function"
    },
    {
      "inputs": [],
      "name": "stats",
      "outputs": [
        {
          "internalType": "uint256",
          "name": "totalCampaigns",
          "type": "uint256"
        },
        {
          "internalType": "uint256",
          "name": "totalRaised",
          "type": "uint256"
        },
        {
          "internalType": "uint256",
          "name": "totalSuccessful",
          "type": "uint256"
        },
        {
          "internalType": "uint256",
          "name": "totalContributors",
          "type": "uint256"
        }
      ],
      "stateMutability": "view",
      "type": "function"
    },
    {
      "inputs": [
        {
          "internalType": "address",
          "name": "newOwner",
          "type": "address"
        }
      ],
      "name": "transferOwnership",
      "outputs": [],
      "stateMutability": "nonpayable",
      "type": "function"
    },
    {
      "inputs": [
        {
          "internalType": "address",
          "name": "",
          "type": "address"
        },
        {
          "internalType": "uint256",
          "name": "",
          "type": "uint256"
        }
      ],
      "name": "userCampaigns",
      "outputs": [
        {
          "internalType": "address",
          "name": "",
          "type": "address"
        }
      ],
      "stateMutability": "view",
      "type": "function"
    },
    {
      "inputs": [],
      "name": "withdrawFees",
      "outputs": [],
      "stateMutability": "nonpayable",
      "type": "function"
    }
  ],
  "bytecode": "0x60806040523480156200001157600080fd5b506040516200681738038062006817833981810160405281019062000037919062000218565b33600073ffffffffffffffffffffffffffffffffffffffff168173ffffffffffffffffffffffffffffffffffffffff1603620000ad5760006040517f1e4fbdf7000000000000000000000000000000000000000000000000000000008152600401620000a491906200028f565b60405180910390fd5b620000be816200011460201b60201c565b50600a81111562000106576040517f08c379a0000000000000000000000000000000000000000000000000000000008152600401620000fd906200030d565b60405180910390fd5b80600181905550506200032f565b60008060009054906101000a900473ffffffffffffffffffffffffffffffffffffffff169050816000806101000a81548173ffffffffffffffffffffffffffffffffffffffff021916908373ffffffffffffffffffffffffffffffffffffffff1602179055508173ffffffffffffffffffffffffffffffffffffffff168173ffffffffffffffffffffffffffffffffffffffff167f8be0079c531659141344cd1fd0a4f28419497f9722a3daafe3b4186f6b6457e060405160405180910390a35050565b600080fd5b6000819050919050565b620001f281620001dd565b8114620001fe57600080fd5b50565b6000815190506200021281620001e7565b92915050565b600060208284031215620002315762000230620001d8565b5b6000620002418482850162000201565b91505092915050565b600073ffffffffffffffffffffffffffffffffffffffff82169050919050565b600062000277826200024a565b9050919050565b62000289816200026a565b82525050565b6000602082019050620002a660008301846200027e565b92915050565b600082825260208201905092915050565b7f4665652063616e6e6f7420657863656564203130250000000000000000000000600082015250565b6000620002f5601583620002ac565b91506200030282620002bd565b602082019050919050565b600060208201905081810360008301526200032881620002e6565b9050919050565b6164d8806200033f6000396000f3fe60806040523480156200001157600080fd5b5060043610620000e25760003560e01c80638f66341f1162000099578063adf7df9c116200006f578063adf7df9c1462000225578063cdd78cfc146200025b578063d80528ae146200027d578063f2fde38b14620002a257620000e2565b80638f66341f1462000199578063a1e5084c14620001b9578063a509f4d114620001ef57620000e2565b806312e8e2c314620000e757806316f43dd4146200010757806319ac74bd1462000129578063476343ee146200015f578063715018a6146200016b5780638da5cb5b1462000177575b600080fd5b620001056004803603810190620000ff919062000bd3565b620002c2565b005b6200011162000356565b60405162000120919062000c16565b60405180910390f35b62000147600480360381019062000141919062000c98565b62000363565b60405162000156919062000cf0565b60405180910390f35b62000169620003b2565b005b620001756200045b565b005b6200018162000473565b60405162000190919062000cf0565b60405180910390f35b620001b76004803603810190620001b1919062000d0d565b6200049c565b005b620001d76004803603810190620001d1919062000d54565b62000546565b604051620001e6919062000e54565b60405180910390f35b6200020d600480360381019062000207919062000bd3565b62000615565b6040516200021c919062000cf0565b60405180910390f35b6200024360048036038101906200023d919062001017565b62000655565b60405162000252919062000cf0565b60405180910390f35b62000265620008b2565b60405162000274919062000c16565b60405180910390f35b62000287620008b8565b60405162000299949392919062001110565b60405180910390f35b620002c06004803603810190620002ba919062000d54565b620008d6565b005b620002cc62000963565b600a81111562000313576040517f08c379a00000000000000000000000000000000000000000000000000000000081526004016200030a90620011be565b60405180910390fd5b806001819055507f72b05fd7e6e407beabebd17ae121166880efdc19a2a9b08063eafc0c001e470a816040516200034b919062000c16565b60405180910390a150565b6000600280549050905090565b600360205281600052604060002081815481106200038057600080fd5b906000526020600020016000915091509054906101000a900473ffffffffffffffffffffffffffffffffffffffff1681565b620003bc62000963565b60004790506000811162000407576040517f08c379a0000000000000000000000000000000000000000000000000000000008152600401620003fe9062001230565b60405180910390fd5b6200041162000473565b73ffffffffffffffffffffffffffffffffffffffff166108fc829081150290604051600060405180830381858888f1935050505015801562000457573d6000803e3d6000fd5b5050565b6200046562000963565b620004716000620009f3565b565b60008060009054906101000a900473ffffffffffffffffffffffffffffffffffffffff16905090565b620004a73362000ab7565b620004e9576040517f08c379a0000000000000000000000000000000000000000000000000000000008152600401620004e090620012a2565b60405180910390fd5b8160046001016000828254620005009190620012f3565b92505081905550600460020160008154809291906200051f906200132e565b919050555080600460030160008282546200053b9190620012f3565b925050819055505050565b6060600360008373ffffffffffffffffffffffffffffffffffffffff1673ffffffffffffffffffffffffffffffffffffffff1681526020019081526020016000208054806020026020016040519081016040528092919081815260200182805480156200060957602002820191906000526020600020905b8160009054906101000a900473ffffffffffffffffffffffffffffffffffffffff1673ffffffffffffffffffffffffffffffffffffffff1681526020019060010190808311620005be575b50505050509050919050565b600281815481106200062657600080fd5b906000526020600020016000915054906101000a900473ffffffffffffffffffffffffffffffffffffffff1681565b60008087116200069c576040517f08c379a00000000000000000000000000000000000000000000000000000000081526004016200069390620013cb565b60405180910390fd5b428611620006e1576040517f08c379a0000000000000000000000000000000000000000000000000000000008152600401620006d8906200143d565b60405180910390fd5b6000338888600154868a8a8a604051620006fb9062000b76565b6200070e989796959493929190620014e8565b604051809103906000f0801580156200072b573d6000803e3d6000fd5b5090508091506002829080600181540180825580915050600190039060005260206000200160009091909190916101000a81548173ffffffffffffffffffffffffffffffffffffffff021916908373ffffffffffffffffffffffffffffffffffffffff160217905550600360003373ffffffffffffffffffffffffffffffffffffffff1673ffffffffffffffffffffffffffffffffffffffff168152602001908152602001600020829080600181540180825580915050600190039060005260206000200160009091909190916101000a81548173ffffffffffffffffffffffffffffffffffffffff021916908373ffffffffffffffffffffffffffffffffffffffff160217905550600460000160008154809291906200084c906200132e565b91905055503373ffffffffffffffffffffffffffffffffffffffff167fbe12cd61db77adb20e095dd401ab22a9dbfa8f24609e60d43a7b365bc88eb610838a8a8a6040516200089f94939291906200158b565b60405180910390a2509695505050505050565b60015481565b60048060000154908060010154908060020154908060030154905084565b620008e062000963565b600073ffffffffffffffffffffffffffffffffffffffff168173ffffffffffffffffffffffffffffffffffffffff1603620009555760006040517f1e4fbdf70000000000000000000000000000000000000000000000000000000081526004016200094c919062000cf0565b60405180910390fd5b6200096081620009f3565b50565b6200096d62000b6e565b73ffffffffffffffffffffffffffffffffffffffff166200098d62000473565b73ffffffffffffffffffffffffffffffffffffffff1614620009f157620009b362000b6e565b6040517f118cdaa7000000000000000000000000000000000000000000000000000000008152600401620009e8919062000cf0565b60405180910390fd5b565b60008060009054906101000a900473ffffffffffffffffffffffffffffffffffffffff169050816000806101000a81548173ffffffffffffffffffffffffffffffffffffffff021916908373ffffffffffffffffffffffffffffffffffffffff1602179055508173ffffffffffffffffffffffffffffffffffffffff168173ffffffffffffffffffffffffffffffffffffffff167f8be0079c531659141344cd1fd0a4f28419497f9722a3daafe3b4186f6b6457e060405160405180910390a35050565b600080600090505b60028054905081101562000b63578273ffffffffffffffffffffffffffffffffffffffff166002828154811062000afb5762000afa620015df565b5b9060005260206000200160009054906101000a900473ffffffffffffffffffffffffffffffffffffffff1673ffffffffffffffffffffffffffffffffffffffff160362000b4d57600191505062000b69565b808062000b5a906200132e565b91505062000abf565b50600090505b919050565b600033905090565b614e94806200160f83390190565b6000604051905090565b600080fd5b600080fd5b6000819050919050565b62000bad8162000b98565b811462000bb957600080fd5b50565b60008135905062000bcd8162000ba2565b92915050565b60006020828403121562000bec5762000beb62000b8e565b5b600062000bfc8482850162000bbc565b91505092915050565b62000c108162000b98565b82525050565b600060208201905062000c2d600083018462000c05565b92915050565b600073ffffffffffffffffffffffffffffffffffffffff82169050919050565b600062000c608262000c33565b9050919050565b62000c728162000c53565b811462000c7e57600080fd5b50565b60008135905062000c928162000c67565b92915050565b6000806040838503121562000cb25762000cb162000b8e565b5b600062000cc28582860162000c81565b925050602062000cd58582860162000bbc565b9150509250929050565b62000cea8162000c53565b82525050565b600060208201905062000d07600083018462000cdf565b92915050565b6000806040838503121562000d275762000d2662000b8e565b5b600062000d378582860162000bbc565b925050602062000d4a8582860162000bbc565b9150509250929050565b60006020828403121562000d6d5762000d6c62000b8e565b5b600062000d7d8482850162000c81565b91505092915050565b600081519050919050565b600082825260208201905092915050565b6000819050602082019050919050565b62000dbd8162000c53565b82525050565b600062000dd1838362000db2565b60208301905092915050565b6000602082019050919050565b600062000df78262000d86565b62000e03818562000d91565b935062000e108362000da2565b8060005b8381101562000e4757815162000e2b888262000dc3565b975062000e388362000ddd565b92505060018101905062000e14565b5085935050505092915050565b6000602082019050818103600083015262000e70818462000dea565b905092915050565b600080fd5b600080fd5b6000601f19601f8301169050919050565b7f4e487b7100000000000000000000000000000000000000000000000000000000600052604160045260246000fd5b62000ecd8262000e82565b810181811067ffffffffffffffff8211171562000eef5762000eee62000e93565b5b80604052505050565b600062000f0462000b84565b905062000f12828262000ec2565b919050565b600067ffffffffffffffff82111562000f355762000f3462000e93565b5b62000f408262000e82565b9050602081019050919050565b82818337600083830152505050565b600062000f7362000f6d8462000f17565b62000ef8565b90508281526020810184848401111562000f925762000f9162000e7d565b5b62000f9f84828562000f4d565b509392505050565b600082601f83011262000fbf5762000fbe62000e78565b5b813562000fd184826020860162000f5c565b91505092915050565b60008115159050919050565b62000ff18162000fda565b811462000ffd57600080fd5b50565b600081359050620010118162000fe6565b92915050565b60008060008060008060c0878903121562001037576200103662000b8e565b5b60006200104789828a0162000bbc565b96505060206200105a89828a0162000bbc565b955050604087013567ffffffffffffffff8111156200107e576200107d62000b93565b5b6200108c89828a0162000fa7565b945050606087013567ffffffffffffffff811115620010b057620010af62000b93565b5b620010be89828a0162000fa7565b935050608087013567ffffffffffffffff811115620010e257620010e162000b93565b5b620010f089828a0162000fa7565b92505060a06200110389828a0162001000565b9150509295509295509295565b600060808201905062001127600083018762000c05565b62001136602083018662000c05565b62001145604083018562000c05565b62001154606083018462000c05565b95945050505050565b600082825260208201905092915050565b7f4665652063616e6e6f7420657863656564203130250000000000000000000000600082015250565b6000620011a66015836200115d565b9150620011b3826200116e565b602082019050919050565b60006020820190508181036000830152620011d98162001197565b9050919050565b7f4e6f206665657320746f20776974686472617700000000000000000000000000600082015250565b6000620012186013836200115d565b91506200122582620011e0565b602082019050919050565b600060208201905081810360008301526200124b8162001209565b9050919050565b7f43616c6c6572206e6f7420612063616d706169676e0000000000000000000000600082015250565b60006200128a6015836200115d565b9150620012978262001252565b602082019050919050565b60006020820190508181036000830152620012bd816200127b565b9050919050565b7f4e487b7100000000000000000000000000000000000000000000000000000000600052601160045260246000fd5b6000620013008262000b98565b91506200130d8362000b98565b9250828201905080821115620013285762001327620012c4565b5b92915050565b60006200133b8262000b98565b91507fffffffffffffffffffffffffffffffffffffffffffffffffffffffffffffffff820362001370576200136f620012c4565b5b600182019050919050565b7f476f616c206d757374206265203e203000000000000000000000000000000000600082015250565b6000620013b36010836200115d565b9150620013c0826200137b565b602082019050919050565b60006020820190508181036000830152620013e681620013a4565b9050919050565b7f446561646c696e65206d75737420626520696e20667574757265000000000000600082015250565b600062001425601a836200115d565b91506200143282620013ed565b602082019050919050565b60006020820190508181036000830152620014588162001416565b9050919050565b6200146a8162000fda565b82525050565b600081519050919050565b60005b838110156200149b5780820151818401526020810190506200147e565b60008484015250505050565b6000620014b48262001470565b620014c081856200115d565b9350620014d28185602086016200147b565b620014dd8162000e82565b840191505092915050565b60006101008201905062001500600083018b62000cdf565b6200150f602083018a62000c05565b6200151e604083018962000c05565b6200152d606083018862000c05565b6200153c60808301876200145f565b81810360a0830152620015508186620014a7565b905081810360c0830152620015668185620014a7565b905081810360e08301526200157c8184620014a7565b90509998505050505050505050565b6000608082019050620015a2600083018762000cdf565b620015b1602083018662000c05565b620015c0604083018562000c05565b8181036060830152620015d48184620014a7565b905095945050505050565b7f4e487b7100000000000000000000000000000000000000000000000000000000600052603260045260246000fdfe60806040523480156200001157600080fd5b5060405162004e9438038062004e94833981810160405281019062000037919062000363565b600160008190555087600660006101000a81548173ffffffffffffffffffffffffffffffffffffffff021916908373ffffffffffffffffffffffffffffffffffffffff160217905550866007819055508560088190555084600a8190555083600b60006101000a81548160ff02191690831515021790555082600c9081620000c09190620006ca565b5081600d9081620000d29190620006ca565b5080600e9081620000e49190620006ca565b505050505050505050620007b1565b6000604051905090565b600080fd5b600080fd5b600073ffffffffffffffffffffffffffffffffffffffff82169050919050565b6000620001348262000107565b9050919050565b620001468162000127565b81146200015257600080fd5b50565b60008151905062000166816200013b565b92915050565b6000819050919050565b62000181816200016c565b81146200018d57600080fd5b50565b600081519050620001a18162000176565b92915050565b60008115159050919050565b620001be81620001a7565b8114620001ca57600080fd5b50565b600081519050620001de81620001b3565b92915050565b600080fd5b600080fd5b6000601f19601f8301169050919050565b7f4e487b7100000000000000000000000000000000000000000000000000000000600052604160045260246000fd5b6200023982620001ee565b810181811067ffffffffffffffff821117156200025b576200025a620001ff565b5b80604052505050565b600062000270620000f3565b90506200027e82826200022e565b919050565b600067ffffffffffffffff821115620002a157620002a0620001ff565b5b620002ac82620001ee565b9050602081019050919050565b60005b83811015620002d9578082015181840152602081019050620002bc565b60008484015250505050565b6000620002fc620002f68462000283565b62000264565b9050828152602081018484840111156200031b576200031a620001e9565b5b62000328848285620002b9565b509392505050565b600082601f830112620003485762000347620001e4565b5b81516200035a848260208601620002e5565b91505092915050565b600080600080600080600080610100898b031215620003875762000386620000fd565b5b6000620003978b828c0162000155565b9850506020620003aa8b828c0162000190565b9750506040620003bd8b828c0162000190565b9650506060620003d08b828c0162000190565b9550506080620003e38b828c01620001cd565b94505060a089015167ffffffffffffffff81111562000407576200040662000102565b5b620004158b828c0162000330565b93505060c089015167ffffffffffffffff81111562000439576200043862000102565b5b620004478b828c0162000330565b92505060e089015167ffffffffffffffff8111156200046b576200046a62000102565b5b620004798b828c0162000330565b9150509295985092959890939650565b600081519050919050565b7f4e487b7100000000000000000000000000000000000000000000000000000000600052602260045260246000fd5b60006002820490506001821680620004dc57607f821691505b602082108103620004f257620004f162000494565b5b50919050565b60008190508160005260206000209050919050565b60006020601f8301049050919050565b600082821b905092915050565b6000600883026200055c7fffffffffffffffffffffffffffffffffffffffffffffffffffffffffffffffff826200051d565b6200056886836200051d565b95508019841693508086168417925050509392505050565b6000819050919050565b6000620005ab620005a56200059f846200016c565b62000580565b6200016c565b9050919050565b6000819050919050565b620005c7836200058a565b620005df620005d682620005b2565b8484546200052a565b825550505050565b600090565b620005f6620005e7565b62000603818484620005bc565b505050565b5b818110156200062b576200061f600082620005ec565b60018101905062000609565b5050565b601f8211156200067a576200064481620004f8565b6200064f846200050d565b810160208510156200065f578190505b620006776200066e856200050d565b83018262000608565b50505b505050565b600082821c905092915050565b60006200069f600019846008026200067f565b1980831691505092915050565b6000620006ba83836200068c565b9150826002028217905092915050565b620006d58262000489565b67ffffffffffffffff811115620006f157620006f0620001ff565b5b620006fd8254620004c3565b6200070a8282856200062f565b600060209050601f8311600181146200074257600084156200072d578287015190505b620007398582620006ac565b865550620007a9565b601f1984166200075286620004f8565b60005b828110156200077c5784890151825560018201915060208501945060208101905062000755565b868310156200079c578489015162000798601f8916826200068c565b8355505b6001600288020188555050505b505050505050565b6146d380620007c16000396000f3fe6080604052600436106102295760003560e01c80634a79d50c11610123578063ac307fcf116100ab578063c5c4744c1161006f578063c5c4744c14610b1c578063cdd78cfc14610b47578063dbaf214514610b72578063dcef567814610b89578063f59bdf8514610bc657610562565b8063ac307fcf14610a7c578063b5545a3c14610aa7578063b88a802f14610abe578063b90497e014610ad5578063c1cbbca714610b0057610562565b806377071911116100f257806377071911146109975780637b62ef98146109c257806394abb8cd146109ff57806395b3a81e14610a2a578063aa55efed14610a5357610562565b80634a79d50c146108eb5780634e69d56014610916578063530449ce146109415780637284e4161461096c57610562565b806337f38652116101b157806340193883116101755780634019388314610804578063428cc6f01461082f57806342e94c901461085a5780634623c81e1461089757806349d50693146108c257610562565b806337f386521461070d57806338263c551461074a578063389b7533146107755780633c6f26d11461079e5780633cb5d100146107c757610562565b806324600fc3116101f857806324600fc31461063a578063253da8bd1461065157806329dcb0cf1461067c5780632c690ac5146106a7578063350e85fa146106d057610562565b806302d05d3f14610567578063039af9eb1461059257806309eef43e146105d25780630cd205781461060f57610562565b366105625760003411610271576040517f08c379a000000000000000000000000000000000000000000000000000000000815260040161026890612f4d565b60405180910390fd5b6000601480549050116102b9576040517f08c379a00000000000000000000000000000000000000000000000000000000081526004016102b090612fdf565b60405180910390fd5b600080601482815481106102d0576102cf612fff565b5b906000526020600020906004020190508060000154341015610327576040517f08c379a000000000000000000000000000000000000000000000000000000000815260040161031e9061307a565b60405180910390fd5b8060020154816003015410610371576040517f08c379a0000000000000000000000000000000000000000000000000000000008152600401610368906130e6565b60405180910390fd5b6000600f60003373ffffffffffffffffffffffffffffffffffffffff1673ffffffffffffffffffffffffffffffffffffffff168152602001908152602001600020540361041c576010339080600181540180825580915050600190039060005260206000200160009091909190916101000a81548173ffffffffffffffffffffffffffffffffffffffff021916908373ffffffffffffffffffffffffffffffffffffffff1602179055505b34600f60003373ffffffffffffffffffffffffffffffffffffffff1673ffffffffffffffffffffffffffffffffffffffff168152602001908152602001600020600082825461046b919061313f565b925050819055503460096000828254610484919061313f565b9250508190555081601560003373ffffffffffffffffffffffffffffffffffffffff1673ffffffffffffffffffffffffffffffffffffffff168152602001908152602001600020819055508060030160008154809291906104e490613173565b919050555060075460095410610510576001600b60016101000a81548160ff0219169083151502179055505b3373ffffffffffffffffffffffffffffffffffffffff167ffa35a310d7113dddce1c275da946348e9aaebf9050b00b372033c4d84b0bd6eb34846040516105589291906131ca565b60405180910390a2005b600080fd5b34801561057357600080fd5b5061057c610bf1565b6040516105899190613234565b60405180910390f35b34801561059e57600080fd5b506105b960048036038101906105b4919061328f565b610c17565b6040516105c9949392919061333b565b60405180910390f35b3480156105de57600080fd5b506105f960048036038101906105f491906133b3565b610cdf565b60405161060691906133fb565b60405180910390f35b34801561061b57600080fd5b50610624610cff565b60405161063191906133fb565b60405180910390f35b34801561064657600080fd5b5061064f610d12565b005b34801561065d57600080fd5b5061066661103a565b6040516106739190613416565b60405180910390f35b34801561068857600080fd5b50610691611047565b60405161069e9190613416565b60405180910390f35b3480156106b357600080fd5b506106ce60048036038101906106c99190613566565b61104d565b005b3480156106dc57600080fd5b506106f760048036038101906106f291906133b3565b6111f4565b6040516107049190613416565b60405180910390f35b34801561071957600080fd5b50610734600480360381019061072f91906133b3565b61120c565b6040516107419190613416565b60405180910390f35b34801561075657600080fd5b5061075f611224565b60405161076c9190613416565b60405180910390f35b34801561078157600080fd5b5061079c6004803603810190610797919061328f565b61122a565b005b3480156107aa57600080fd5b506107c560048036038101906107c091906133b3565b6114a1565b005b3480156107d357600080fd5b506107ee60048036038101906107e9919061328f565b611836565b6040516107fb9190613234565b60405180910390f35b34801561081057600080fd5b50610819611875565b6040516108269190613416565b60405180910390f35b34801561083b57600080fd5b5061084461187b565b60405161085191906133fb565b60405180910390f35b34801561086657600080fd5b50610881600480360381019061087c91906133b3565b61188e565b60405161088e9190613416565b60405180910390f35b3480156108a357600080fd5b506108ac6118a6565b6040516108b99190613416565b60405180910390f35b3480156108ce57600080fd5b506108e960048036038101906108e49190613601565b6118ad565b005b3480156108f757600080fd5b50610900611aa5565b60405161090d9190613641565b60405180910390f35b34801561092257600080fd5b5061092b611b33565b6040516109389190613641565b60405180910390f35b34801561094d57600080fd5b50610956611c21565b6040516109639190613416565b60405180910390f35b34801561097857600080fd5b50610981611c27565b60405161098e9190613641565b60405180910390f35b3480156109a357600080fd5b506109ac611cb5565b6040516109b99190613416565b60405180910390f35b3480156109ce57600080fd5b506109e960048036038101906109e49190613663565b611cbb565b6040516109f69190613416565b60405180910390f35b348015610a0b57600080fd5b50610a14611ce0565b604051610a219190613416565b60405180910390f35b348015610a3657600080fd5b50610a516004803603810190610a4c91906136a3565b611ce5565b005b348015610a5f57600080fd5b50610a7a6004803603810190610a75919061328f565b6121f1565b005b348015610a8857600080fd5b50610a916123b0565b604051610a9e91906133fb565b60405180910390f35b348015610ab357600080fd5b50610abc6123c3565b005b348015610aca57600080fd5b50610ad361268a565b005b348015610ae157600080fd5b50610aea61285b565b604051610af79190613641565b60405180910390f35b610b1a6004803603810190610b15919061328f565b6128e9565b005b348015610b2857600080fd5b50610b31612c61565b604051610b3e9190613416565b60405180910390f35b348015610b5357600080fd5b50610b5c612c67565b604051610b699190613416565b60405180910390f35b348015610b7e57600080fd5b50610b87612c6d565b005b348015610b9557600080fd5b50610bb06004803603810190610bab91906136f6565b612e4c565b604051610bbd9190613234565b60405180910390f35b348015610bd257600080fd5b50610bdb612e9a565b604051610be89190613416565b60405180910390f35b600660009054906101000a900473ffffffffffffffffffffffffffffffffffffffff1681565b60148181548110610c2757600080fd5b9060005260206000209060040201600091509050806000015490806001018054610c5090613765565b80601f0160208091040260200160405190810160405280929190818152602001828054610c7c90613765565b8015610cc95780601f10610c9e57610100808354040283529160200191610cc9565b820191906000526020600020905b815481529060010190602001808311610cac57829003601f168201915b5050505050908060020154908060030154905084565b60016020528060005260406000206000915054906101000a900460ff1681565b600b60019054906101000a900460ff1681565b600660009054906101000a900473ffffffffffffffffffffffffffffffffffffffff1673ffffffffffffffffffffffffffffffffffffffff163373ffffffffffffffffffffffffffffffffffffffff1614610da2576040517f08c379a0000000000000000000000000000000000000000000000000000000008152600401610d9990613808565b60405180910390fd5b600854421015610de7576040517f08c379a0000000000000000000000000000000000000000000000000000000008152600401610dde90613874565b60405180910390fd5b610def612ea0565b600b60029054906101000a900460ff1615610e3f576040517f08c379a0000000000000000000000000000000000000000000000000000000008152600401610e3690613906565b60405180910390fd5b600060045411610e84576040517f08c379a0000000000000000000000000000000000000000000000000000000008152600401610e7b90613972565b60405180910390fd5b6202a300600454610e95919061313f565b421015610ed7576040517f08c379a0000000000000000000000000000000000000000000000000000000008152600401610ece906139de565b60405180910390fd5b600b60009054906101000a900460ff1680610efe5750600b60019054906101000a900460ff165b15610ff55760006064600a5447610f1591906139fe565b610f1f9190613a6f565b905060008147610f2f9190613aa0565b9050600660009054906101000a900473ffffffffffffffffffffffffffffffffffffffff1673ffffffffffffffffffffffffffffffffffffffff166108fc829081150290604051600060405180830381858888f19350505050158015610f99573d6000803e3d6000fd5b506001600b60026101000a81548160ff0219169083151502179055507fd66662c0ded9e58fd31d5e44944bcfd07ffc15e6927ecc1382e7941cb7bd24c48183604051610fe69291906131ca565b60405180910390a15050611030565b6040517f08c379a000000000000000000000000000000000000000000000000000000000815260040161102790613b46565b60405180910390fd5b611038612ee6565b565b6000601080549050905090565b60085481565b600660009054906101000a900473ffffffffffffffffffffffffffffffffffffffff1673ffffffffffffffffffffffffffffffffffffffff163373ffffffffffffffffffffffffffffffffffffffff16146110dd576040517f08c379a00000000000000000000000000000000000000000000000000000000081526004016110d490613808565b60405180910390fd5b6008544210611121576040517f08c379a000000000000000000000000000000000000000000000000000000000815260040161111890613bb2565b60405180910390fd5b601460405180608001604052808581526020018481526020018381526020016000815250908060018154018082558091505060019003906000526020600020906004020160009091909190915060008201518160000155602082015181600101908161118d9190613d7e565b506040820151816002015560608201518160030155505060016014805490506111b69190613aa0565b7f73f2c5150dd3bafcdfcfd66cdd6938bc381635e48cebe16c6d424dfcf68fe85484846040516111e7929190613e50565b60405180910390a2505050565b60136020528060005260406000206000915090505481565b60156020528060005260406000206000915090505481565b60055481565b600660009054906101000a900473ffffffffffffffffffffffffffffffffffffffff1673ffffffffffffffffffffffffffffffffffffffff163373ffffffffffffffffffffffffffffffffffffffff16146112ba576040517f08c379a00000000000000000000000000000000000000000000000000000000081526004016112b190613808565b60405180910390fd5b60085442106112fe576040517f08c379a00000000000000000000000000000000000000000000000000000000081526004016112f590613bb2565b60405180910390fd5b600060055411611343576040517f08c379a000000000000000000000000000000000000000000000000000000000815260040161133a90613ecc565b60405180910390fd5b6202a300600554611354919061313f565b421015611396576040517f08c379a000000000000000000000000000000000000000000000000000000000815260040161138d906139de565b60405180910390fd5b806008819055507f16d806232f153f787bcf04afdd7d4a80d09712d215b0344d490f6b352eff3124816040516113cc9190613416565b60405180910390a16000600281905550600060058190555060005b60108054905081101561149d576000600160006010848154811061140e5761140d612fff565b5b9060005260206000200160009054906101000a900473ffffffffffffffffffffffffffffffffffffffff1673ffffffffffffffffffffffffffffffffffffffff1673ffffffffffffffffffffffffffffffffffffffff16815260200190815260200160002060006101000a81548160ff021916908315150217905550808061149590613173565b9150506113e7565b5050565b6008544210156114e6576040517f08c379a00000000000000000000000000000000000000000000000000000000081526004016114dd90613874565b60405180910390fd5b6114ee612ea0565b600b60019054906101000a900460ff161580156115185750600b60009054906101000a900460ff16155b611557576040517f08c379a000000000000000000000000000000000000000000000000000000000815260040161154e90613f38565b60405180910390fd5b6000601160008373ffffffffffffffffffffffffffffffffffffffff1673ffffffffffffffffffffffffffffffffffffffff16815260200190815260200160002060003373ffffffffffffffffffffffffffffffffffffffff1673ffffffffffffffffffffffffffffffffffffffff1681526020019081526020016000205411611616576040517f08c379a000000000000000000000000000000000000000000000000000000000815260040161160d90613fa4565b60405180910390fd5b6000601160008373ffffffffffffffffffffffffffffffffffffffff1673ffffffffffffffffffffffffffffffffffffffff16815260200190815260200160002060003373ffffffffffffffffffffffffffffffffffffffff1673ffffffffffffffffffffffffffffffffffffffff1681526020019081526020016000205490506000601160008473ffffffffffffffffffffffffffffffffffffffff1673ffffffffffffffffffffffffffffffffffffffff16815260200190815260200160002060003373ffffffffffffffffffffffffffffffffffffffff1673ffffffffffffffffffffffffffffffffffffffff1681526020019081526020016000208190555060008273ffffffffffffffffffffffffffffffffffffffff1663a9059cbb33846040518363ffffffff1660e01b8152600401611756929190613fc4565b6020604051808303816000875af1158015611775573d6000803e3d6000fd5b505050506040513d601f19601f820116820180604052508101906117999190614002565b9050806117db576040517f08c379a00000000000000000000000000000000000000000000000000000000081526004016117d29061407b565b60405180910390fd5b3373ffffffffffffffffffffffffffffffffffffffff167f358fe4192934d3bf28ae181feda1f4bd08ca67f5e2fad55582cce5eb67304ae9836040516118219190613416565b60405180910390a25050611833612ee6565b50565b6010818154811061184657600080fd5b906000526020600020016000915054906101000a900473ffffffffffffffffffffffffffffffffffffffff1681565b60075481565b600b60009054906101000a900460ff1681565b600f6020528060005260406000206000915090505481565b6202a30081565b6000600f60003373ffffffffffffffffffffffffffffffffffffffff1673ffffffffffffffffffffffffffffffffffffffff168152602001908152602001600020541161192f576040517f08c379a0000000000000000000000000000000000000000000000000000000008152600401611926906140e7565b60405180910390fd5b600160003373ffffffffffffffffffffffffffffffffffffffff1673ffffffffffffffffffffffffffffffffffffffff16815260200190815260200160002060009054906101000a900460ff16156119bc576040517f08c379a00000000000000000000000000000000000000000000000000000000081526004016119b390614153565b60405180910390fd5b81156119db57600260008154809291906119d590613173565b91905055505b80156119fa57600360008154809291906119f490613173565b91905055505b60018060003373ffffffffffffffffffffffffffffffffffffffff1673ffffffffffffffffffffffffffffffffffffffff16815260200190815260200160002060006101000a81548160ff0219169083151502179055503373ffffffffffffffffffffffffffffffffffffffff167f4693a7da7ae0e5a6c9258801888900c59f0940a6c4b8a82c86b6b3ae7ac2b4438383604051611a99929190614173565b60405180910390a25050565b600c8054611ab290613765565b80601f0160208091040260200160405190810160405280929190818152602001828054611ade90613765565b8015611b2b5780601f10611b0057610100808354040283529160200191611b2b565b820191906000526020600020905b815481529060010190602001808311611b0e57829003601f168201915b505050505081565b6060600854421015611b7c576040518060400160405280600681526020017f41637469766500000000000000000000000000000000000000000000000000008152509050611c1e565b600b60019054906101000a900460ff1680611ba35750600b60009054906101000a900460ff165b15611be5576040518060400160405280600a81526020017f5375636365737366756c000000000000000000000000000000000000000000008152509050611c1e565b6040518060400160405280600681526020017f4661696c6564000000000000000000000000000000000000000000000000000081525090505b90565b60025481565b600d8054611c3490613765565b80601f0160208091040260200160405190810160405280929190818152602001828054611c6090613765565b8015611cad5780601f10611c8257610100808354040283529160200191611cad565b820191906000526020600020905b815481529060010190602001808311611c9057829003601f168201915b505050505081565b60035481565b6011602052816000526040600020602052806000526040600020600091509150505481565b603381565b6008544210611d29576040517f08c379a0000000000000000000000000000000000000000000000000000000008152600401611d2090613bb2565b60405180910390fd5b60008211611d6c576040517f08c379a0000000000000000000000000000000000000000000000000000000008152600401611d63906141e8565b60405180910390fd5b60008373ffffffffffffffffffffffffffffffffffffffff166323b872dd3330866040518463ffffffff1660e01b8152600401611dab93929190614208565b6020604051808303816000875af1158015611dca573d6000803e3d6000fd5b505050506040513d601f19601f82011682018060405250810190611dee9190614002565b905080611e30576040517f08c379a0000000000000000000000000000000000000000000000000000000008152600401611e279061428b565b60405180910390fd5b6000601160008673ffffffffffffffffffffffffffffffffffffffff1673ffffffffffffffffffffffffffffffffffffffff16815260200190815260200160002060003373ffffffffffffffffffffffffffffffffffffffff1673ffffffffffffffffffffffffffffffffffffffff1681526020019081526020016000205403611f5557601260008573ffffffffffffffffffffffffffffffffffffffff1673ffffffffffffffffffffffffffffffffffffffff168152602001908152602001600020339080600181540180825580915050600190039060005260206000200160009091909190916101000a81548173ffffffffffffffffffffffffffffffffffffffff021916908373ffffffffffffffffffffffffffffffffffffffff1602179055505b82601160008673ffffffffffffffffffffffffffffffffffffffff1673ffffffffffffffffffffffffffffffffffffffff16815260200190815260200160002060003373ffffffffffffffffffffffffffffffffffffffff1673ffffffffffffffffffffffffffffffffffffffff1681526020019081526020016000206000828254611fe1919061313f565b9250508190555082601360008673ffffffffffffffffffffffffffffffffffffffff1673ffffffffffffffffffffffffffffffffffffffff1681526020019081526020016000206000828254612037919061313f565b925050819055506014805490508210612085576040517f08c379a000000000000000000000000000000000000000000000000000000000815260040161207c906142f7565b60405180910390fd5b60006014838154811061209b5761209a612fff565b5b9060005260206000209060040201905080600001548410156120f2576040517f08c379a00000000000000000000000000000000000000000000000000000000081526004016120e99061307a565b60405180910390fd5b806002015481600301541061213c576040517f08c379a0000000000000000000000000000000000000000000000000000000008152600401612133906130e6565b60405180910390fd5b82601560003373ffffffffffffffffffffffffffffffffffffffff1673ffffffffffffffffffffffffffffffffffffffff1681526020019081526020016000208190555080600301600081548092919061219590613173565b91905055503373ffffffffffffffffffffffffffffffffffffffff167ffa35a310d7113dddce1c275da946348e9aaebf9050b00b372033c4d84b0bd6eb85856040516121e29291906131ca565b60405180910390a25050505050565b600660009054906101000a900473ffffffffffffffffffffffffffffffffffffffff1673ffffffffffffffffffffffffffffffffffffffff163373ffffffffffffffffffffffffffffffffffffffff1614612281576040517f08c379a000000000000000000000000000000000000000000000000000000000815260040161227890613808565b60405180910390fd5b60085442106122c5576040517f08c379a00000000000000000000000000000000000000000000000000000000081526004016122bc90613bb2565b60405180910390fd5b6008548111612309576040517f08c379a000000000000000000000000000000000000000000000000000000000815260040161230090614389565b60405180910390fd5b6033601080549050606460025461232091906139fe565b61232a9190613a6f565b101561236b576040517f08c379a0000000000000000000000000000000000000000000000000000000008152600401612362906143f5565b60405180910390fd5b426005819055507f716353ecd9ce9e0f96eff3234e561ab110bd9d59740cb745622af9031d4f28b2600554826040516123a59291906131ca565b60405180910390a150565b600b60029054906101000a900460ff1681565b600854421015612408576040517f08c379a00000000000000000000000000000000000000000000000000000000081526004016123ff90613874565b60405180910390fd5b612410612ea0565b600b60019054906101000a900460ff1615801561243a5750600b60009054906101000a900460ff16155b612479576040517f08c379a000000000000000000000000000000000000000000000000000000000815260040161247090613f38565b60405180910390fd5b6000600f60003373ffffffffffffffffffffffffffffffffffffffff1673ffffffffffffffffffffffffffffffffffffffff16815260200190815260200160002054116124fb576040517f08c379a00000000000000000000000000000000000000000000000000000000081526004016124f290613fa4565b60405180910390fd5b6000600f60003373ffffffffffffffffffffffffffffffffffffffff1673ffffffffffffffffffffffffffffffffffffffff1681526020019081526020016000205490506000600f60003373ffffffffffffffffffffffffffffffffffffffff1673ffffffffffffffffffffffffffffffffffffffff1681526020019081526020016000208190555060003373ffffffffffffffffffffffffffffffffffffffff16826040516125aa90614446565b60006040518083038185875af1925050503d80600081146125e7576040519150601f19603f3d011682016040523d82523d6000602084013e6125ec565b606091505b5050905080612630576040517f08c379a0000000000000000000000000000000000000000000000000000000008152600401612627906144a7565b60405180910390fd5b3373ffffffffffffffffffffffffffffffffffffffff167f358fe4192934d3bf28ae181feda1f4bd08ca67f5e2fad55582cce5eb67304ae9836040516126769190613416565b60405180910390a25050612688612ee6565b565b600b60019054906101000a900460ff16806126b15750600b60009054906101000a900460ff165b6126f0576040517f08c379a00000000000000000000000000000000000000000000000000000000081526004016126e790614513565b60405180910390fd5b6000600f60003373ffffffffffffffffffffffffffffffffffffffff1673ffffffffffffffffffffffffffffffffffffffff1681526020019081526020016000205411612772576040517f08c379a00000000000000000000000000000000000000000000000000000000081526004016127699061457f565b60405180910390fd5b6000601560003373ffffffffffffffffffffffffffffffffffffffff1673ffffffffffffffffffffffffffffffffffffffff1681526020019081526020016000205490506000811415806127cb57506000601480549050115b61280a576040517f08c379a0000000000000000000000000000000000000000000000000000000008152600401612801906145eb565b60405180910390fd5b3373ffffffffffffffffffffffffffffffffffffffff167f106f923f993c2149d49b4255ff723acafa1f2d94393f561d3eda32ae348f7241826040516128509190613416565b60405180910390a250565b600e805461286890613765565b80601f016020809104026020016040519081016040528092919081815260200182805461289490613765565b80156128e15780601f106128b6576101008083540402835291602001916128e1565b820191906000526020600020905b8154815290600101906020018083116128c457829003601f168201915b505050505081565b600854421061292d576040517f08c379a000000000000000000000000000000000000000000000000000000000815260040161292490613bb2565b60405180910390fd5b60003411612970576040517f08c379a000000000000000000000000000000000000000000000000000000000815260040161296790612f4d565b60405180910390fd5b60148054905081106129b7576040517f08c379a00000000000000000000000000000000000000000000000000000000081526004016129ae906142f7565b60405180910390fd5b6000601482815481106129cd576129cc612fff565b5b906000526020600020906004020190508060000154341015612a24576040517f08c379a0000000000000000000000000000000000000000000000000000000008152600401612a1b9061307a565b60405180910390fd5b8060020154816003015410612a6e576040517f08c379a0000000000000000000000000000000000000000000000000000000008152600401612a65906130e6565b60405180910390fd5b6000600f60003373ffffffffffffffffffffffffffffffffffffffff1673ffffffffffffffffffffffffffffffffffffffff1681526020019081526020016000205403612b19576010339080600181540180825580915050600190039060005260206000200160009091909190916101000a81548173ffffffffffffffffffffffffffffffffffffffff021916908373ffffffffffffffffffffffffffffffffffffffff1602179055505b34600f60003373ffffffffffffffffffffffffffffffffffffffff1673ffffffffffffffffffffffffffffffffffffffff1681526020019081526020016000206000828254612b68919061313f565b925050819055503460096000828254612b81919061313f565b9250508190555081601560003373ffffffffffffffffffffffffffffffffffffffff1673ffffffffffffffffffffffffffffffffffffffff16815260200190815260200160002081905550806003016000815480929190612be190613173565b919050555060075460095410612c0d576001600b60016101000a81548160ff0219169083151502179055505b3373ffffffffffffffffffffffffffffffffffffffff167ffa35a310d7113dddce1c275da946348e9aaebf9050b00b372033c4d84b0bd6eb3484604051612c559291906131ca565b60405180910390a25050565b60095481565b600a5481565b600660009054906101000a900473ffffffffffffffffffffffffffffffffffffffff1673ffffffffffffffffffffffffffffffffffffffff163373ffffffffffffffffffffffffffffffffffffffff1614612cfd576040517f08c379a0000000000000000000000000000000000000000000000000000000008152600401612cf490613808565b60405180910390fd5b600854421015612d42576040517f08c379a0000000000000000000000000000000000000000000000000000000008152600401612d3990613874565b60405180910390fd5b600b60009054906101000a900460ff1680612d695750600b60019054906101000a900460ff165b612da8576040517f08c379a0000000000000000000000000000000000000000000000000000000008152600401612d9f90614513565b60405180910390fd5b60336010805490506064600354612dbf91906139fe565b612dc99190613a6f565b1015612e0a576040517f08c379a0000000000000000000000000000000000000000000000000000000008152600401612e019061467d565b60405180910390fd5b426004819055507faf619daa033514f6c299197d29548ccd9276a1b55ef717fb80adf495925dd510600454604051612e429190613416565b60405180910390a1565b60126020528160005260406000208181548110612e6857600080fd5b906000526020600020016000915091509054906101000a900473ffffffffffffffffffffffffffffffffffffffff1681565b60045481565b600260005403612edc576040517f3ee5aeb500000000000000000000000000000000000000000000000000000000815260040160405180910390fd5b6002600081905550565b6001600081905550565b600082825260208201905092915050565b7f4d7573742073656e642045544800000000000000000000000000000000000000600082015250565b6000612f37600d83612ef0565b9150612f4282612f01565b602082019050919050565b60006020820190508181036000830152612f6681612f2a565b9050919050565b7f4e6f20746965727320617661696c61626c65202d2075736520636f6e7472696260008201527f75746528292077697468207469657220696e6465780000000000000000000000602082015250565b6000612fc9603583612ef0565b9150612fd482612f6d565b604082019050919050565b60006020820190508181036000830152612ff881612fbc565b9050919050565b7f4e487b7100000000000000000000000000000000000000000000000000000000600052603260045260246000fd5b7f416d6f756e742062656c6f772074696572206d696e696d756d00000000000000600082015250565b6000613064601983612ef0565b915061306f8261302e565b602082019050919050565b6000602082019050818103600083015261309381613057565b9050919050565b7f546965722069732066756c6c0000000000000000000000000000000000000000600082015250565b60006130d0600c83612ef0565b91506130db8261309a565b602082019050919050565b600060208201905081810360008301526130ff816130c3565b9050919050565b6000819050919050565b7f4e487b7100000000000000000000000000000000000000000000000000000000600052601160045260246000fd5b600061314a82613106565b915061315583613106565b925082820190508082111561316d5761316c613110565b5b92915050565b600061317e82613106565b91507fffffffffffffffffffffffffffffffffffffffffffffffffffffffffffffffff82036131b0576131af613110565b5b600182019050919050565b6131c481613106565b82525050565b60006040820190506131df60008301856131bb565b6131ec60208301846131bb565b9392505050565b600073ffffffffffffffffffffffffffffffffffffffff82169050919050565b600061321e826131f3565b9050919050565b61322e81613213565b82525050565b60006020820190506132496000830184613225565b92915050565b6000604051905090565b600080fd5b600080fd5b61326c81613106565b811461327757600080fd5b50565b60008135905061328981613263565b92915050565b6000602082840312156132a5576132a4613259565b5b60006132b38482850161327a565b91505092915050565b600081519050919050565b60005b838110156132e55780820151818401526020810190506132ca565b60008484015250505050565b6000601f19601f8301169050919050565b600061330d826132bc565b6133178185612ef0565b93506133278185602086016132c7565b613330816132f1565b840191505092915050565b600060808201905061335060008301876131bb565b81810360208301526133628186613302565b905061337160408301856131bb565b61337e60608301846131bb565b95945050505050565b61339081613213565b811461339b57600080fd5b50565b6000813590506133ad81613387565b92915050565b6000602082840312156133c9576133c8613259565b5b60006133d78482850161339e565b91505092915050565b60008115159050919050565b6133f5816133e0565b82525050565b600060208201905061341060008301846133ec565b92915050565b600060208201905061342b60008301846131bb565b92915050565b600080fd5b600080fd5b7f4e487b7100000000000000000000000000000000000000000000000000000000600052604160045260246000fd5b613473826132f1565b810181811067ffffffffffffffff821117156134925761349161343b565b5b80604052505050565b60006134a561324f565b90506134b1828261346a565b919050565b600067ffffffffffffffff8211156134d1576134d061343b565b5b6134da826132f1565b9050602081019050919050565b82818337600083830152505050565b6000613509613504846134b6565b61349b565b90508281526020810184848401111561352557613524613436565b5b6135308482856134e7565b509392505050565b600082601f83011261354d5761354c613431565b5b813561355d8482602086016134f6565b91505092915050565b60008060006060848603121561357f5761357e613259565b5b600061358d8682870161327a565b935050602084013567ffffffffffffffff8111156135ae576135ad61325e565b5b6135ba86828701613538565b92505060406135cb8682870161327a565b9150509250925092565b6135de816133e0565b81146135e957600080fd5b50565b6000813590506135fb816135d5565b92915050565b6000806040838503121561361857613617613259565b5b6000613626858286016135ec565b9250506020613637858286016135ec565b9150509250929050565b6000602082019050818103600083015261365b8184613302565b905092915050565b6000806040838503121561367a57613679613259565b5b60006136888582860161339e565b92505060206136998582860161339e565b9150509250929050565b6000806000606084860312156136bc576136bb613259565b5b60006136ca8682870161339e565b93505060206136db8682870161327a565b92505060406136ec8682870161327a565b9150509250925092565b6000806040838503121561370d5761370c613259565b5b600061371b8582860161339e565b925050602061372c8582860161327a565b9150509250929050565b7f4e487b7100000000000000000000000000000000000000000000000000000000600052602260045260246000fd5b6000600282049050600182168061377d57607f821691505b6020821081036137905761378f613736565b5b50919050565b7f4f6e6c79207468652063726561746f722063616e2063616c6c2074686973206660008201527f756e6374696f6e00000000000000000000000000000000000000000000000000602082015250565b60006137f2602783612ef0565b91506137fd82613796565b604082019050919050565b60006020820190508181036000830152613821816137e5565b9050919050565b7f43616d706169676e206973207374696c6c206163746976650000000000000000600082015250565b600061385e601883612ef0565b915061386982613828565b602082019050919050565b6000602082019050818103600083015261388d81613851565b9050919050565b7f46756e6473206861766520616c7265616479206265656e20776974686472617760008201527f6e00000000000000000000000000000000000000000000000000000000000000602082015250565b60006138f0602183612ef0565b91506138fb82613894565b604082019050919050565b6000602082019050818103600083015261391f816138e3565b9050919050565b7f5769746864726177616c206e6f74207265717565737465640000000000000000600082015250565b600061395c601883612ef0565b915061396782613926565b602082019050919050565b6000602082019050818103600083015261398b8161394f565b9050919050565b7f54696d65206c6f636b20706572696f64206e6f7420656c617073656400000000600082015250565b60006139c8601c83612ef0565b91506139d382613992565b602082019050919050565b600060208201905081810360008301526139f7816139bb565b9050919050565b6000613a0982613106565b9150613a1483613106565b9250828202613a2281613106565b91508282048414831517613a3957613a38613110565b5b5092915050565b7f4e487b7100000000000000000000000000000000000000000000000000000000600052601260045260246000fd5b6000613a7a82613106565b9150613a8583613106565b925082613a9557613a94613a40565b5b828204905092915050565b6000613aab82613106565b9150613ab683613106565b9250828203905081811115613ace57613acd613110565b5b92915050565b7f43616d706169676e206661696c656420616e64206973206e6f7420666c65786960008201527f626c652066756e64696e67000000000000000000000000000000000000000000602082015250565b6000613b30602b83612ef0565b9150613b3b82613ad4565b604082019050919050565b60006020820190508181036000830152613b5f81613b23565b9050919050565b7f43616d706169676e2068617320656e6465640000000000000000000000000000600082015250565b6000613b9c601283612ef0565b9150613ba782613b66565b602082019050919050565b60006020820190508181036000830152613bcb81613b8f565b9050919050565b60008190508160005260206000209050919050565b60006020601f8301049050919050565b600082821b905092915050565b600060088302613c347fffffffffffffffffffffffffffffffffffffffffffffffffffffffffffffffff82613bf7565b613c3e8683613bf7565b95508019841693508086168417925050509392505050565b6000819050919050565b6000613c7b613c76613c7184613106565b613c56565b613106565b9050919050565b6000819050919050565b613c9583613c60565b613ca9613ca182613c82565b848454613c04565b825550505050565b600090565b613cbe613cb1565b613cc9818484613c8c565b505050565b5b81811015613ced57613ce2600082613cb6565b600181019050613ccf565b5050565b601f821115613d3257613d0381613bd2565b613d0c84613be7565b81016020851015613d1b578190505b613d2f613d2785613be7565b830182613cce565b50505b505050565b600082821c905092915050565b6000613d5560001984600802613d37565b1980831691505092915050565b6000613d6e8383613d44565b9150826002028217905092915050565b613d87826132bc565b67ffffffffffffffff811115613da057613d9f61343b565b5b613daa8254613765565b613db5828285613cf1565b600060209050601f831160018114613de85760008415613dd6578287015190505b613de08582613d62565b865550613e48565b601f198416613df686613bd2565b60005b82811015613e1e57848901518255600182019150602085019450602081019050613df9565b86831015613e3b5784890151613e37601f891682613d44565b8355505b6001600288020188555050505b505050505050565b6000604082019050613e6560008301856131bb565b8181036020830152613e778184613302565b90509392505050565b7f457874656e73696f6e206e6f7420726571756573746564000000000000000000600082015250565b6000613eb6601783612ef0565b9150613ec182613e80565b602082019050919050565b60006020820190508181036000830152613ee581613ea9565b9050919050565b7f526566756e64206e6f7420617661696c61626c65000000000000000000000000600082015250565b6000613f22601483612ef0565b9150613f2d82613eec565b602082019050919050565b60006020820190508181036000830152613f5181613f15565b9050919050565b7f4e6f20636f6e747269627574696f6e20746f20726566756e6400000000000000600082015250565b6000613f8e601983612ef0565b9150613f9982613f58565b602082019050919050565b60006020820190508181036000830152613fbd81613f81565b9050919050565b6000604082019050613fd96000830185613225565b613fe660208301846131bb565b9392505050565b600081519050613ffc816135d5565b92915050565b60006020828403121561401857614017613259565b5b600061402684828501613fed565b91505092915050565b7f546f6b656e20726566756e64206661696c656400000000000000000000000000600082015250565b6000614065601383612ef0565b91506140708261402f565b602082019050919050565b6000602082019050818103600083015261409481614058565b9050919050565b7f4f6e6c7920636f6e7472696275746f72732063616e20766f7465000000000000600082015250565b60006140d1601a83612ef0565b91506140dc8261409b565b602082019050919050565b60006020820190508181036000830152614100816140c4565b9050919050565b7f416c726561647920766f74656400000000000000000000000000000000000000600082015250565b600061413d600d83612ef0565b915061414882614107565b602082019050919050565b6000602082019050818103600083015261416c81614130565b9050919050565b600060408201905061418860008301856133ec565b61419560208301846133ec565b9392505050565b7f416d6f756e74206d7573742062652067726561746572207468616e207a65726f600082015250565b60006141d2602083612ef0565b91506141dd8261419c565b602082019050919050565b60006020820190508181036000830152614201816141c5565b9050919050565b600060608201905061421d6000830186613225565b61422a6020830185613225565b61423760408301846131bb565b949350505050565b7f546f6b656e207472616e73666572206661696c65640000000000000000000000600082015250565b6000614275601583612ef0565b91506142808261423f565b602082019050919050565b600060208201905081810360008301526142a481614268565b9050919050565b7f496e76616c696420746965720000000000000000000000000000000000000000600082015250565b60006142e1600c83612ef0565b91506142ec826142ab565b602082019050919050565b60006020820190508181036000830152614310816142d4565b9050919050565b7f4e657720646561646c696e65206d757374206265206c61746572207468616e2060008201527f63757272656e7400000000000000000000000000000000000000000000000000602082015250565b6000614373602783612ef0565b915061437e82614317565b604082019050919050565b600060208201905081810360008301526143a281614366565b9050919050565b7f4e6f7420656e6f75676820766f74657320666f7220657874656e73696f6e0000600082015250565b60006143df601e83612ef0565b91506143ea826143a9565b602082019050919050565b6000602082019050818103600083015261440e816143d2565b9050919050565b600081905092915050565b50565b6000614430600083614415565b915061443b82614420565b600082019050919050565b600061445182614423565b9150819050919050565b7f526566756e64207472616e73666572206661696c656400000000000000000000600082015250565b6000614491601683612ef0565b915061449c8261445b565b602082019050919050565b600060208201905081810360008301526144c081614484565b9050919050565b7f43616d706169676e206e6f74207375636365737366756c000000000000000000600082015250565b60006144fd601783612ef0565b9150614508826144c7565b602082019050919050565b6000602082019050818103600083015261452c816144f0565b9050919050565b7f4e6f20636f6e747269627574696f6e206d616465000000000000000000000000600082015250565b6000614569601483612ef0565b915061457482614533565b602082019050919050565b600060208201905081810360008301526145988161455c565b9050919050565b7f4e6f20746965722061737369676e656400000000000000000000000000000000600082015250565b60006145d5601083612ef0565b91506145e08261459f565b602082019050919050565b60006020820190508181036000830152614604816145c8565b9050919050565b7f4e6f7420656e6f75676820766f74657320666f722066756e642072656c65617360008201527f6500000000000000000000000000000000000000000000000000000000000000602082015250565b6000614667602183612ef0565b91506146728261460b565b604082019050919050565b600060208201905081810360008301526146968161465a565b905091905056fea2646970667358221220fc06bf898f2dcdad98d3badb4b02615f6b6b56f64c07cbb7976adb68e1c1fedd64736f6c63430008140033a2646970667358221220973b96d07cf9ff786d45b8ff10b68f9277ee5242b2826b09eb7456255a788dbd64736f6c63430008140033",
  "linkReferences": {},
  "deployedLinkReferences": {}
}